{
  "_format": "hh-sol-artifact-1",
  "contractName": "CryptoAidol",
  "sourceName": "contracts/CryptoAidolContracts.sol",
  "abi": [
    {
      "inputs": [],
      "stateMutability": "nonpayable",
      "type": "constructor"
    },
    {
      "anonymous": false,
      "inputs": [
        {
          "indexed": true,
          "internalType": "address",
          "name": "owner",
          "type": "address"
        },
        {
          "indexed": true,
          "internalType": "address",
          "name": "approved",
          "type": "address"
        },
        {
          "indexed": true,
          "internalType": "uint256",
          "name": "tokenId",
          "type": "uint256"
        }
      ],
      "name": "Approval",
      "type": "event"
    },
    {
      "anonymous": false,
      "inputs": [
        {
          "indexed": true,
          "internalType": "address",
          "name": "owner",
          "type": "address"
        },
        {
          "indexed": true,
          "internalType": "address",
          "name": "operator",
          "type": "address"
        },
        {
          "indexed": false,
          "internalType": "bool",
          "name": "approved",
          "type": "bool"
        }
      ],
      "name": "ApprovalForAll",
      "type": "event"
    },
    {
      "anonymous": false,
      "inputs": [
        {
          "indexed": true,
          "internalType": "address",
          "name": "from",
          "type": "address"
        },
        {
          "indexed": true,
          "internalType": "address",
          "name": "to",
          "type": "address"
        },
        {
          "indexed": true,
          "internalType": "uint256",
          "name": "tokenId",
          "type": "uint256"
        }
      ],
      "name": "Transfer",
      "type": "event"
    },
    {
      "inputs": [
        {
          "internalType": "address",
          "name": "to",
          "type": "address"
        },
        {
          "internalType": "uint256",
          "name": "tokenId",
          "type": "uint256"
        }
      ],
      "name": "approve",
      "outputs": [],
      "stateMutability": "nonpayable",
      "type": "function"
    },
    {
      "inputs": [
        {
          "internalType": "address",
          "name": "owner",
          "type": "address"
        }
      ],
      "name": "balanceOf",
      "outputs": [
        {
          "internalType": "uint256",
          "name": "",
          "type": "uint256"
        }
      ],
      "stateMutability": "view",
      "type": "function"
    },
    {
      "inputs": [],
      "name": "getAidolId",
      "outputs": [
        {
          "internalType": "uint256",
          "name": "",
          "type": "uint256"
        }
      ],
      "stateMutability": "view",
      "type": "function"
    },
    {
      "inputs": [
        {
          "internalType": "uint256",
          "name": "tokenId",
          "type": "uint256"
        }
      ],
      "name": "getApproved",
      "outputs": [
        {
          "internalType": "address",
          "name": "",
          "type": "address"
        }
      ],
      "stateMutability": "view",
      "type": "function"
    },
    {
      "inputs": [
        {
          "internalType": "address",
          "name": "owner",
          "type": "address"
        },
        {
          "internalType": "address",
          "name": "operator",
          "type": "address"
        }
      ],
      "name": "isApprovedForAll",
      "outputs": [
        {
          "internalType": "bool",
          "name": "",
          "type": "bool"
        }
      ],
      "stateMutability": "view",
      "type": "function"
    },
    {
      "inputs": [
        {
          "internalType": "string",
          "name": "tokenURI",
          "type": "string"
        }
      ],
      "name": "magicalChange",
      "outputs": [],
      "stateMutability": "nonpayable",
      "type": "function"
    },
    {
      "inputs": [],
      "name": "mint",
      "outputs": [],
      "stateMutability": "nonpayable",
      "type": "function"
    },
    {
      "inputs": [],
      "name": "name",
      "outputs": [
        {
          "internalType": "string",
          "name": "",
          "type": "string"
        }
      ],
      "stateMutability": "view",
      "type": "function"
    },
    {
      "inputs": [
        {
          "internalType": "uint256",
          "name": "tokenId",
          "type": "uint256"
        }
      ],
      "name": "ownerOf",
      "outputs": [
        {
          "internalType": "address",
          "name": "",
          "type": "address"
        }
      ],
      "stateMutability": "view",
      "type": "function"
    },
    {
      "inputs": [],
      "name": "reset",
      "outputs": [],
      "stateMutability": "nonpayable",
      "type": "function"
    },
    {
      "inputs": [
        {
          "internalType": "address",
          "name": "from",
          "type": "address"
        },
        {
          "internalType": "address",
          "name": "to",
          "type": "address"
        },
        {
          "internalType": "uint256",
          "name": "tokenId",
          "type": "uint256"
        }
      ],
      "name": "safeTransferFrom",
      "outputs": [],
      "stateMutability": "nonpayable",
      "type": "function"
    },
    {
      "inputs": [
        {
          "internalType": "address",
          "name": "from",
          "type": "address"
        },
        {
          "internalType": "address",
          "name": "to",
          "type": "address"
        },
        {
          "internalType": "uint256",
          "name": "tokenId",
          "type": "uint256"
        },
        {
          "internalType": "bytes",
          "name": "_data",
          "type": "bytes"
        }
      ],
      "name": "safeTransferFrom",
      "outputs": [],
      "stateMutability": "nonpayable",
      "type": "function"
    },
    {
      "inputs": [
        {
          "internalType": "address",
          "name": "operator",
          "type": "address"
        },
        {
          "internalType": "bool",
          "name": "approved",
          "type": "bool"
        }
      ],
      "name": "setApprovalForAll",
      "outputs": [],
      "stateMutability": "nonpayable",
      "type": "function"
    },
    {
      "inputs": [
        {
          "internalType": "bytes4",
          "name": "interfaceId",
          "type": "bytes4"
        }
      ],
      "name": "supportsInterface",
      "outputs": [
        {
          "internalType": "bool",
          "name": "",
          "type": "bool"
        }
      ],
      "stateMutability": "view",
      "type": "function"
    },
    {
      "inputs": [],
      "name": "symbol",
      "outputs": [
        {
          "internalType": "string",
          "name": "",
          "type": "string"
        }
      ],
      "stateMutability": "view",
      "type": "function"
    },
    {
      "inputs": [
        {
          "internalType": "uint256",
          "name": "tokenId",
          "type": "uint256"
        }
      ],
      "name": "tokenURI",
      "outputs": [
        {
          "internalType": "string",
          "name": "",
          "type": "string"
        }
      ],
      "stateMutability": "view",
      "type": "function"
    },
    {
      "inputs": [
        {
          "internalType": "address",
          "name": "from",
          "type": "address"
        },
        {
          "internalType": "address",
          "name": "to",
          "type": "address"
        },
        {
          "internalType": "uint256",
          "name": "tokenId",
          "type": "uint256"
        }
      ],
      "name": "transferFrom",
      "outputs": [],
      "stateMutability": "nonpayable",
      "type": "function"
    }
  ],
  "bytecode": "0x60806040523480156200001157600080fd5b506040518060400160405280600e81526020017f43727970746f4169646f6c4e46540000000000000000000000000000000000008152506040518060400160405280600381526020017f4341490000000000000000000000000000000000000000000000000000000000815250816000908051906020019062000096929190620000b8565b508060019080519060200190620000af929190620000b8565b505050620001cd565b828054620000c69062000168565b90600052602060002090601f016020900481019282620000ea576000855562000136565b82601f106200010557805160ff191683800117855562000136565b8280016001018555821562000136579182015b828111156200013557825182559160200191906001019062000118565b5b50905062000145919062000149565b5090565b5b80821115620001645760008160009055506001016200014a565b5090565b600060028204905060018216806200018157607f821691505b602082108114156200019857620001976200019e565b5b50919050565b7f4e487b7100000000000000000000000000000000000000000000000000000000600052602260045260246000fd5b6130e080620001dd6000396000f3fe608060405234801561001057600080fd5b506004361061010b5760003560e01c80636352211e116100a2578063b88d4fde11610071578063b88d4fde146102a4578063c87b56dd146102c0578063d14b695b146102f0578063d826f88f1461030c578063e985e9c5146103165761010b565b80636352211e1461020a57806370a082311461023a57806395d89b411461026a578063a22cb465146102885761010b565b80631249c58b116100de5780631249c58b146101aa57806323b872dd146101b45780633e1c041a146101d057806342842e0e146101ee5761010b565b806301ffc9a71461011057806306fdde0314610140578063081812fc1461015e578063095ea7b31461018e575b600080fd5b61012a60048036038101906101259190612008565b610346565b60405161013791906124b8565b60405180910390f35b610148610428565b60405161015591906124d3565b60405180910390f35b6101786004803603810190610173919061209b565b6104ba565b6040516101859190612451565b60405180910390f35b6101a860048036038101906101a39190611fcc565b61053f565b005b6101b2610657565b005b6101ce60048036038101906101c99190611ec6565b6107b6565b005b6101d8610816565b6040516101e59190612755565b60405180910390f35b61020860048036038101906102039190611ec6565b6108e9565b005b610224600480360381019061021f919061209b565b610909565b6040516102319190612451565b60405180910390f35b610254600480360381019061024f9190611e61565b6109bb565b6040516102619190612755565b60405180910390f35b610272610a73565b60405161027f91906124d3565b60405180910390f35b6102a2600480360381019061029d9190611f90565b610b05565b005b6102be60048036038101906102b99190611f15565b610b1b565b005b6102da60048036038101906102d5919061209b565b610b7d565b6040516102e791906124d3565b60405180910390f35b61030a6004803603810190610305919061205a565b610ccf565b005b610314610d70565b005b610330600480360381019061032b9190611e8a565b610e16565b60405161033d91906124b8565b60405180910390f35b60007f80ac58cd000000000000000000000000000000000000000000000000000000007bffffffffffffffffffffffffffffffffffffffffffffffffffffffff1916827bffffffffffffffffffffffffffffffffffffffffffffffffffffffff1916148061041157507f5b5e139f000000000000000000000000000000000000000000000000000000007bffffffffffffffffffffffffffffffffffffffffffffffffffffffff1916827bffffffffffffffffffffffffffffffffffffffffffffffffffffffff1916145b80610421575061042082610eaa565b5b9050919050565b606060008054610437906129ab565b80601f0160208091040260200160405190810160405280929190818152602001828054610463906129ab565b80156104b05780601f10610485576101008083540402835291602001916104b0565b820191906000526020600020905b81548152906001019060200180831161049357829003601f168201915b5050505050905090565b60006104c582610f14565b610504576040517f08c379a00000000000000000000000000000000000000000000000000000000081526004016104fb906126b5565b60405180910390fd5b6004600083815260200190815260200160002060009054906101000a900473ffffffffffffffffffffffffffffffffffffffff169050919050565b600061054a82610909565b90508073ffffffffffffffffffffffffffffffffffffffff168373ffffffffffffffffffffffffffffffffffffffff1614156105bb576040517f08c379a00000000000000000000000000000000000000000000000000000000081526004016105b2906126f5565b60405180910390fd5b8073ffffffffffffffffffffffffffffffffffffffff166105da610f80565b73ffffffffffffffffffffffffffffffffffffffff161480610609575061060881610603610f80565b610e16565b5b610648576040517f08c379a000000000000000000000000000000000000000000000000000000000815260040161063f906125d5565b60405180910390fd5b6106528383610f88565b505050565b600860003373ffffffffffffffffffffffffffffffffffffffff1673ffffffffffffffffffffffffffffffffffffffff16815260200190815260200160002060009054906101000a900460ff16156106e4576040517f08c379a00000000000000000000000000000000000000000000000000000000081526004016106db90612715565b60405180910390fd5b6106ee6007611041565b60006106fa6007611057565b90506107063382611065565b80600960003373ffffffffffffffffffffffffffffffffffffffff1673ffffffffffffffffffffffffffffffffffffffff168152602001908152602001600020819055506001600860003373ffffffffffffffffffffffffffffffffffffffff1673ffffffffffffffffffffffffffffffffffffffff16815260200190815260200160002060006101000a81548160ff0219169083151502179055506107b3816107ae61123f565b61127c565b50565b6107c76107c1610f80565b826112f0565b610806576040517f08c379a00000000000000000000000000000000000000000000000000000000081526004016107fd90612735565b60405180910390fd5b6108118383836113ce565b505050565b6000600860003373ffffffffffffffffffffffffffffffffffffffff1673ffffffffffffffffffffffffffffffffffffffff16815260200190815260200160002060009054906101000a900460ff166108a4576040517f08c379a000000000000000000000000000000000000000000000000000000000815260040161089b906124f5565b60405180910390fd5b600960003373ffffffffffffffffffffffffffffffffffffffff1673ffffffffffffffffffffffffffffffffffffffff16815260200190815260200160002054905090565b61090483838360405180602001604052806000815250610b1b565b505050565b6000806002600084815260200190815260200160002060009054906101000a900473ffffffffffffffffffffffffffffffffffffffff169050600073ffffffffffffffffffffffffffffffffffffffff168173ffffffffffffffffffffffffffffffffffffffff1614156109b2576040517f08c379a00000000000000000000000000000000000000000000000000000000081526004016109a990612635565b60405180910390fd5b80915050919050565b60008073ffffffffffffffffffffffffffffffffffffffff168273ffffffffffffffffffffffffffffffffffffffff161415610a2c576040517f08c379a0000000000000000000000000000000000000000000000000000000008152600401610a2390612615565b60405180910390fd5b600360008373ffffffffffffffffffffffffffffffffffffffff1673ffffffffffffffffffffffffffffffffffffffff168152602001908152602001600020549050919050565b606060018054610a82906129ab565b80601f0160208091040260200160405190810160405280929190818152602001828054610aae906129ab565b8015610afb5780601f10610ad057610100808354040283529160200191610afb565b820191906000526020600020905b815481529060010190602001808311610ade57829003601f168201915b5050505050905090565b610b17610b10610f80565b8383611635565b5050565b610b2c610b26610f80565b836112f0565b610b6b576040517f08c379a0000000000000000000000000000000000000000000000000000000008152600401610b6290612735565b60405180910390fd5b610b77848484846117a2565b50505050565b6060610b8882610f14565b610bc7576040517f08c379a0000000000000000000000000000000000000000000000000000000008152600401610bbe90612695565b60405180910390fd5b6000600660008481526020019081526020016000208054610be7906129ab565b80601f0160208091040260200160405190810160405280929190818152602001828054610c13906129ab565b8015610c605780601f10610c3557610100808354040283529160200191610c60565b820191906000526020600020905b815481529060010190602001808311610c4357829003601f168201915b505050505090506000610c7161123f565b9050600081511415610c87578192505050610cca565b600082511115610cbc578082604051602001610ca492919061242d565b60405160208183030381529060405292505050610cca565b610cc5846117fe565b925050505b919050565b600860003373ffffffffffffffffffffffffffffffffffffffff1673ffffffffffffffffffffffffffffffffffffffff16815260200190815260200160002060009054906101000a900460ff1615610d5c576040517f08c379a0000000000000000000000000000000000000000000000000000000008152600401610d5390612715565b60405180910390fd5b610d6d610d67610816565b8261127c565b50565b600860003373ffffffffffffffffffffffffffffffffffffffff1673ffffffffffffffffffffffffffffffffffffffff16815260200190815260200160002060009054906101000a900460ff16610dfc576040517f08c379a0000000000000000000000000000000000000000000000000000000008152600401610df3906124f5565b60405180910390fd5b610e14610e07610816565b610e0f61123f565b61127c565b565b6000600560008473ffffffffffffffffffffffffffffffffffffffff1673ffffffffffffffffffffffffffffffffffffffff16815260200190815260200160002060008373ffffffffffffffffffffffffffffffffffffffff1673ffffffffffffffffffffffffffffffffffffffff16815260200190815260200160002060009054906101000a900460ff16905092915050565b60007f01ffc9a7000000000000000000000000000000000000000000000000000000007bffffffffffffffffffffffffffffffffffffffffffffffffffffffff1916827bffffffffffffffffffffffffffffffffffffffffffffffffffffffff1916149050919050565b60008073ffffffffffffffffffffffffffffffffffffffff166002600084815260200190815260200160002060009054906101000a900473ffffffffffffffffffffffffffffffffffffffff1673ffffffffffffffffffffffffffffffffffffffff1614159050919050565b600033905090565b816004600083815260200190815260200160002060006101000a81548173ffffffffffffffffffffffffffffffffffffffff021916908373ffffffffffffffffffffffffffffffffffffffff160217905550808273ffffffffffffffffffffffffffffffffffffffff16610ffb83610909565b73ffffffffffffffffffffffffffffffffffffffff167f8c5be1e5ebec7d5bd14f71427d1e84f3dd0314c0f7b2291e5b200ac8c7c3b92560405160405180910390a45050565b6001816000016000828254019250508190555050565b600081600001549050919050565b600073ffffffffffffffffffffffffffffffffffffffff168273ffffffffffffffffffffffffffffffffffffffff1614156110d5576040517f08c379a00000000000000000000000000000000000000000000000000000000081526004016110cc90612675565b60405180910390fd5b6110de81610f14565b1561111e576040517f08c379a000000000000000000000000000000000000000000000000000000000815260040161111590612555565b60405180910390fd5b61112a600083836118a5565b6001600360008473ffffffffffffffffffffffffffffffffffffffff1673ffffffffffffffffffffffffffffffffffffffff168152602001908152602001600020600082825461117a919061283a565b92505081905550816002600083815260200190815260200160002060006101000a81548173ffffffffffffffffffffffffffffffffffffffff021916908373ffffffffffffffffffffffffffffffffffffffff160217905550808273ffffffffffffffffffffffffffffffffffffffff16600073ffffffffffffffffffffffffffffffffffffffff167fddf252ad1be2c89b69c2b068fc378daa952ba7f163c4a11628f55a4df523b3ef60405160405180910390a461123b60008383611919565b5050565b60606040518060400160405280601281526020017f68747470733a2f2f73616d706c652e636f6d0000000000000000000000000000815250905090565b61128582610f14565b6112c4576040517f08c379a00000000000000000000000000000000000000000000000000000000081526004016112bb90612655565b60405180910390fd5b806006600084815260200190815260200160002090805190602001906112eb929190611c85565b505050565b60006112fb82610f14565b61133a576040517f08c379a0000000000000000000000000000000000000000000000000000000008152600401611331906125b5565b60405180910390fd5b600061134583610909565b90508073ffffffffffffffffffffffffffffffffffffffff168473ffffffffffffffffffffffffffffffffffffffff16148061138757506113868185610e16565b5b806113c557508373ffffffffffffffffffffffffffffffffffffffff166113ad846104ba565b73ffffffffffffffffffffffffffffffffffffffff16145b91505092915050565b8273ffffffffffffffffffffffffffffffffffffffff166113ee82610909565b73ffffffffffffffffffffffffffffffffffffffff1614611444576040517f08c379a000000000000000000000000000000000000000000000000000000000815260040161143b90612535565b60405180910390fd5b600073ffffffffffffffffffffffffffffffffffffffff168273ffffffffffffffffffffffffffffffffffffffff1614156114b4576040517f08c379a00000000000000000000000000000000000000000000000000000000081526004016114ab90612575565b60405180910390fd5b6114bf8383836118a5565b6114ca600082610f88565b6001600360008573ffffffffffffffffffffffffffffffffffffffff1673ffffffffffffffffffffffffffffffffffffffff168152602001908152602001600020600082825461151a91906128c1565b925050819055506001600360008473ffffffffffffffffffffffffffffffffffffffff1673ffffffffffffffffffffffffffffffffffffffff1681526020019081526020016000206000828254611571919061283a565b92505081905550816002600083815260200190815260200160002060006101000a81548173ffffffffffffffffffffffffffffffffffffffff021916908373ffffffffffffffffffffffffffffffffffffffff160217905550808273ffffffffffffffffffffffffffffffffffffffff168473ffffffffffffffffffffffffffffffffffffffff167fddf252ad1be2c89b69c2b068fc378daa952ba7f163c4a11628f55a4df523b3ef60405160405180910390a4611630838383611919565b505050565b8173ffffffffffffffffffffffffffffffffffffffff168373ffffffffffffffffffffffffffffffffffffffff1614156116a4576040517f08c379a000000000000000000000000000000000000000000000000000000000815260040161169b90612595565b60405180910390fd5b80600560008573ffffffffffffffffffffffffffffffffffffffff1673ffffffffffffffffffffffffffffffffffffffff16815260200190815260200160002060008473ffffffffffffffffffffffffffffffffffffffff1673ffffffffffffffffffffffffffffffffffffffff16815260200190815260200160002060006101000a81548160ff0219169083151502179055508173ffffffffffffffffffffffffffffffffffffffff168373ffffffffffffffffffffffffffffffffffffffff167f17307eab39ab6107e8899845ad3d59bd9653f200f220920489ca2b5937696c318360405161179591906124b8565b60405180910390a3505050565b6117ad8484846113ce565b6117b98484848461191e565b6117f8576040517f08c379a00000000000000000000000000000000000000000000000000000000081526004016117ef90612515565b60405180910390fd5b50505050565b606061180982610f14565b611848576040517f08c379a000000000000000000000000000000000000000000000000000000000815260040161183f906126d5565b60405180910390fd5b600061185261123f565b90506000815111611872576040518060200160405280600081525061189d565b8061187c84611ab5565b60405160200161188d92919061242d565b6040516020818303038152906040525b915050919050565b600073ffffffffffffffffffffffffffffffffffffffff168373ffffffffffffffffffffffffffffffffffffffff1614611914576040517f08c379a000000000000000000000000000000000000000000000000000000000815260040161190b906125f5565b60405180910390fd5b505050565b505050565b600061193f8473ffffffffffffffffffffffffffffffffffffffff16611c62565b15611aa8578373ffffffffffffffffffffffffffffffffffffffff1663150b7a02611968610f80565b8786866040518563ffffffff1660e01b815260040161198a949392919061246c565b602060405180830381600087803b1580156119a457600080fd5b505af19250505080156119d557506040513d601f19601f820116820180604052508101906119d29190612031565b60015b611a58573d8060008114611a05576040519150601f19603f3d011682016040523d82523d6000602084013e611a0a565b606091505b50600081511415611a50576040517f08c379a0000000000000000000000000000000000000000000000000000000008152600401611a4790612515565b60405180910390fd5b805181602001fd5b63150b7a0260e01b7bffffffffffffffffffffffffffffffffffffffffffffffffffffffff1916817bffffffffffffffffffffffffffffffffffffffffffffffffffffffff191614915050611aad565b600190505b949350505050565b60606000821415611afd576040518060400160405280600181526020017f30000000000000000000000000000000000000000000000000000000000000008152509050611c5d565b600082905060005b60008214611b2f578080611b1890612a0e565b915050600a82611b289190612890565b9150611b05565b60008167ffffffffffffffff811115611b71577f4e487b7100000000000000000000000000000000000000000000000000000000600052604160045260246000fd5b6040519080825280601f01601f191660200182016040528015611ba35781602001600182028036833780820191505090505b5090505b60008514611c5657600182611bbc91906128c1565b9150600a85611bcb9190612a57565b6030611bd7919061283a565b60f81b818381518110611c13577f4e487b7100000000000000000000000000000000000000000000000000000000600052603260045260246000fd5b60200101907effffffffffffffffffffffffffffffffffffffffffffffffffffffffffffff1916908160001a905350600a85611c4f9190612890565b9450611ba7565b8093505050505b919050565b6000808273ffffffffffffffffffffffffffffffffffffffff163b119050919050565b828054611c91906129ab565b90600052602060002090601f016020900481019282611cb35760008555611cfa565b82601f10611ccc57805160ff1916838001178555611cfa565b82800160010185558215611cfa579182015b82811115611cf9578251825591602001919060010190611cde565b5b509050611d079190611d0b565b5090565b5b80821115611d24576000816000905550600101611d0c565b5090565b6000611d3b611d3684612795565b612770565b905082815260208101848484011115611d5357600080fd5b611d5e848285612969565b509392505050565b6000611d79611d74846127c6565b612770565b905082815260208101848484011115611d9157600080fd5b611d9c848285612969565b509392505050565b600081359050611db38161304e565b92915050565b600081359050611dc881613065565b92915050565b600081359050611ddd8161307c565b92915050565b600081519050611df28161307c565b92915050565b600082601f830112611e0957600080fd5b8135611e19848260208601611d28565b91505092915050565b600082601f830112611e3357600080fd5b8135611e43848260208601611d66565b91505092915050565b600081359050611e5b81613093565b92915050565b600060208284031215611e7357600080fd5b6000611e8184828501611da4565b91505092915050565b60008060408385031215611e9d57600080fd5b6000611eab85828601611da4565b9250506020611ebc85828601611da4565b9150509250929050565b600080600060608486031215611edb57600080fd5b6000611ee986828701611da4565b9350506020611efa86828701611da4565b9250506040611f0b86828701611e4c565b9150509250925092565b60008060008060808587031215611f2b57600080fd5b6000611f3987828801611da4565b9450506020611f4a87828801611da4565b9350506040611f5b87828801611e4c565b925050606085013567ffffffffffffffff811115611f7857600080fd5b611f8487828801611df8565b91505092959194509250565b60008060408385031215611fa357600080fd5b6000611fb185828601611da4565b9250506020611fc285828601611db9565b9150509250929050565b60008060408385031215611fdf57600080fd5b6000611fed85828601611da4565b9250506020611ffe85828601611e4c565b9150509250929050565b60006020828403121561201a57600080fd5b600061202884828501611dce565b91505092915050565b60006020828403121561204357600080fd5b600061205184828501611de3565b91505092915050565b60006020828403121561206c57600080fd5b600082013567ffffffffffffffff81111561208657600080fd5b61209284828501611e22565b91505092915050565b6000602082840312156120ad57600080fd5b60006120bb84828501611e4c565b91505092915050565b6120cd816128f5565b82525050565b6120dc81612907565b82525050565b60006120ed826127f7565b6120f7818561280d565b9350612107818560208601612978565b61211081612b44565b840191505092915050565b600061212682612802565b612130818561281e565b9350612140818560208601612978565b61214981612b44565b840191505092915050565b600061215f82612802565b612169818561282f565b9350612179818560208601612978565b80840191505092915050565b600061219260208361281e565b915061219d82612b55565b602082019050919050565b60006121b560328361281e565b91506121c082612b7e565b604082019050919050565b60006121d860258361281e565b91506121e382612bcd565b604082019050919050565b60006121fb601c8361281e565b915061220682612c1c565b602082019050919050565b600061221e60248361281e565b915061222982612c45565b604082019050919050565b600061224160198361281e565b915061224c82612c94565b602082019050919050565b6000612264602c8361281e565b915061226f82612cbd565b604082019050919050565b600061228760388361281e565b915061229282612d0c565b604082019050919050565b60006122aa60108361281e565b91506122b582612d5b565b602082019050919050565b60006122cd602a8361281e565b91506122d882612d84565b604082019050919050565b60006122f060298361281e565b91506122fb82612dd3565b604082019050919050565b6000612313602e8361281e565b915061231e82612e22565b604082019050919050565b600061233660208361281e565b915061234182612e71565b602082019050919050565b600061235960318361281e565b915061236482612e9a565b604082019050919050565b600061237c602c8361281e565b915061238782612ee9565b604082019050919050565b600061239f602f8361281e565b91506123aa82612f38565b604082019050919050565b60006123c260218361281e565b91506123cd82612f87565b604082019050919050565b60006123e560158361281e565b91506123f082612fd6565b602082019050919050565b600061240860318361281e565b915061241382612fff565b604082019050919050565b6124278161295f565b82525050565b60006124398285612154565b91506124458284612154565b91508190509392505050565b600060208201905061246660008301846120c4565b92915050565b600060808201905061248160008301876120c4565b61248e60208301866120c4565b61249b604083018561241e565b81810360608301526124ad81846120e2565b905095945050505050565b60006020820190506124cd60008301846120d3565b92915050565b600060208201905081810360008301526124ed818461211b565b905092915050565b6000602082019050818103600083015261250e81612185565b9050919050565b6000602082019050818103600083015261252e816121a8565b9050919050565b6000602082019050818103600083015261254e816121cb565b9050919050565b6000602082019050818103600083015261256e816121ee565b9050919050565b6000602082019050818103600083015261258e81612211565b9050919050565b600060208201905081810360008301526125ae81612234565b9050919050565b600060208201905081810360008301526125ce81612257565b9050919050565b600060208201905081810360008301526125ee8161227a565b9050919050565b6000602082019050818103600083015261260e8161229d565b9050919050565b6000602082019050818103600083015261262e816122c0565b9050919050565b6000602082019050818103600083015261264e816122e3565b9050919050565b6000602082019050818103600083015261266e81612306565b9050919050565b6000602082019050818103600083015261268e81612329565b9050919050565b600060208201905081810360008301526126ae8161234c565b9050919050565b600060208201905081810360008301526126ce8161236f565b9050919050565b600060208201905081810360008301526126ee81612392565b9050919050565b6000602082019050818103600083015261270e816123b5565b9050919050565b6000602082019050818103600083015261272e816123d8565b9050919050565b6000602082019050818103600083015261274e816123fb565b9050919050565b600060208201905061276a600083018461241e565b92915050565b600061277a61278b565b905061278682826129dd565b919050565b6000604051905090565b600067ffffffffffffffff8211156127b0576127af612b15565b5b6127b982612b44565b9050602081019050919050565b600067ffffffffffffffff8211156127e1576127e0612b15565b5b6127ea82612b44565b9050602081019050919050565b600081519050919050565b600081519050919050565b600082825260208201905092915050565b600082825260208201905092915050565b600081905092915050565b60006128458261295f565b91506128508361295f565b9250827fffffffffffffffffffffffffffffffffffffffffffffffffffffffffffffffff0382111561288557612884612a88565b5b828201905092915050565b600061289b8261295f565b91506128a68361295f565b9250826128b6576128b5612ab7565b5b828204905092915050565b60006128cc8261295f565b91506128d78361295f565b9250828210156128ea576128e9612a88565b5b828203905092915050565b60006129008261293f565b9050919050565b60008115159050919050565b60007fffffffff0000000000000000000000000000000000000000000000000000000082169050919050565b600073ffffffffffffffffffffffffffffffffffffffff82169050919050565b6000819050919050565b82818337600083830152505050565b60005b8381101561299657808201518184015260208101905061297b565b838111156129a5576000848401525b50505050565b600060028204905060018216806129c357607f821691505b602082108114156129d7576129d6612ae6565b5b50919050565b6129e682612b44565b810181811067ffffffffffffffff82111715612a0557612a04612b15565b5b80604052505050565b6000612a198261295f565b91507fffffffffffffffffffffffffffffffffffffffffffffffffffffffffffffffff821415612a4c57612a4b612a88565b5b600182019050919050565b6000612a628261295f565b9150612a6d8361295f565b925082612a7d57612a7c612ab7565b5b828206905092915050565b7f4e487b7100000000000000000000000000000000000000000000000000000000600052601160045260246000fd5b7f4e487b7100000000000000000000000000000000000000000000000000000000600052601260045260246000fd5b7f4e487b7100000000000000000000000000000000000000000000000000000000600052602260045260246000fd5b7f4e487b7100000000000000000000000000000000000000000000000000000000600052604160045260246000fd5b6000601f19601f8301169050919050565b7f596f75277665206e6f74206f70656e656420746865204169646f6c20446f6f72600082015250565b7f4552433732313a207472616e7366657220746f206e6f6e20455243373231526560008201527f63656976657220696d706c656d656e7465720000000000000000000000000000602082015250565b7f4552433732313a207472616e736665722066726f6d20696e636f72726563742060008201527f6f776e6572000000000000000000000000000000000000000000000000000000602082015250565b7f4552433732313a20746f6b656e20616c7265616479206d696e74656400000000600082015250565b7f4552433732313a207472616e7366657220746f20746865207a65726f2061646460008201527f7265737300000000000000000000000000000000000000000000000000000000602082015250565b7f4552433732313a20617070726f766520746f2063616c6c657200000000000000600082015250565b7f4552433732313a206f70657261746f7220717565727920666f72206e6f6e657860008201527f697374656e7420746f6b656e0000000000000000000000000000000000000000602082015250565b7f4552433732313a20617070726f76652063616c6c6572206973206e6f74206f7760008201527f6e6572206e6f7220617070726f76656420666f7220616c6c0000000000000000602082015250565b7f4e6f74205472616e7366657261626c6500000000000000000000000000000000600082015250565b7f4552433732313a2062616c616e636520717565727920666f7220746865207a6560008201527f726f206164647265737300000000000000000000000000000000000000000000602082015250565b7f4552433732313a206f776e657220717565727920666f72206e6f6e657869737460008201527f656e7420746f6b656e0000000000000000000000000000000000000000000000602082015250565b7f45524337323155524953746f726167653a2055524920736574206f66206e6f6e60008201527f6578697374656e7420746f6b656e000000000000000000000000000000000000602082015250565b7f4552433732313a206d696e7420746f20746865207a65726f2061646472657373600082015250565b7f45524337323155524953746f726167653a2055524920717565727920666f722060008201527f6e6f6e6578697374656e7420746f6b656e000000000000000000000000000000602082015250565b7f4552433732313a20617070726f76656420717565727920666f72206e6f6e657860008201527f697374656e7420746f6b656e0000000000000000000000000000000000000000602082015250565b7f4552433732314d657461646174613a2055524920717565727920666f72206e6f60008201527f6e6578697374656e7420746f6b656e0000000000000000000000000000000000602082015250565b7f4552433732313a20617070726f76616c20746f2063757272656e74206f776e6560008201527f7200000000000000000000000000000000000000000000000000000000000000602082015250565b7f596f7527726520616c7265616479204169646f6c210000000000000000000000600082015250565b7f4552433732313a207472616e736665722063616c6c6572206973206e6f74206f60008201527f776e6572206e6f7220617070726f766564000000000000000000000000000000602082015250565b613057816128f5565b811461306257600080fd5b50565b61306e81612907565b811461307957600080fd5b50565b61308581612913565b811461309057600080fd5b50565b61309c8161295f565b81146130a757600080fd5b5056fea264697066735822122044ea7cc739a3b7f8004b0735ada24dee16d31e20e8c04df5401a78108faf01c664736f6c63430008010033",
  "linkReferences": {},
  "deployedLinkReferences": {}
}