{
  "_format": "hh-sol-artifact-1",
  "contractName": "AidolFashion",
  "sourceName": "contracts/AidolMagicalChange.sol",
  "abi": [
    {
      "inputs": [],
      "stateMutability": "nonpayable",
      "type": "constructor"
    },
    {
      "anonymous": false,
      "inputs": [
        {
          "indexed": true,
          "internalType": "address",
          "name": "account",
          "type": "address"
        },
        {
          "indexed": true,
          "internalType": "address",
          "name": "operator",
          "type": "address"
        },
        {
          "indexed": false,
          "internalType": "bool",
          "name": "approved",
          "type": "bool"
        }
      ],
      "name": "ApprovalForAll",
      "type": "event"
    },
    {
      "anonymous": false,
      "inputs": [
        {
          "indexed": true,
          "internalType": "address",
          "name": "previousOwner",
          "type": "address"
        },
        {
          "indexed": true,
          "internalType": "address",
          "name": "newOwner",
          "type": "address"
        }
      ],
      "name": "OwnershipTransferred",
      "type": "event"
    },
    {
      "anonymous": false,
      "inputs": [
        {
          "indexed": true,
          "internalType": "address",
          "name": "operator",
          "type": "address"
        },
        {
          "indexed": true,
          "internalType": "address",
          "name": "from",
          "type": "address"
        },
        {
          "indexed": true,
          "internalType": "address",
          "name": "to",
          "type": "address"
        },
        {
          "indexed": false,
          "internalType": "uint256[]",
          "name": "ids",
          "type": "uint256[]"
        },
        {
          "indexed": false,
          "internalType": "uint256[]",
          "name": "values",
          "type": "uint256[]"
        }
      ],
      "name": "TransferBatch",
      "type": "event"
    },
    {
      "anonymous": false,
      "inputs": [
        {
          "indexed": true,
          "internalType": "address",
          "name": "operator",
          "type": "address"
        },
        {
          "indexed": true,
          "internalType": "address",
          "name": "from",
          "type": "address"
        },
        {
          "indexed": true,
          "internalType": "address",
          "name": "to",
          "type": "address"
        },
        {
          "indexed": false,
          "internalType": "uint256",
          "name": "id",
          "type": "uint256"
        },
        {
          "indexed": false,
          "internalType": "uint256",
          "name": "value",
          "type": "uint256"
        }
      ],
      "name": "TransferSingle",
      "type": "event"
    },
    {
      "anonymous": false,
      "inputs": [
        {
          "indexed": false,
          "internalType": "string",
          "name": "value",
          "type": "string"
        },
        {
          "indexed": true,
          "internalType": "uint256",
          "name": "id",
          "type": "uint256"
        }
      ],
      "name": "URI",
      "type": "event"
    },
    {
      "inputs": [
        {
          "internalType": "address",
          "name": "account",
          "type": "address"
        },
        {
          "internalType": "uint256",
          "name": "id",
          "type": "uint256"
        }
      ],
      "name": "balanceOf",
      "outputs": [
        {
          "internalType": "uint256",
          "name": "",
          "type": "uint256"
        }
      ],
      "stateMutability": "view",
      "type": "function"
    },
    {
      "inputs": [
        {
          "internalType": "address[]",
          "name": "accounts",
          "type": "address[]"
        },
        {
          "internalType": "uint256[]",
          "name": "ids",
          "type": "uint256[]"
        }
      ],
      "name": "balanceOfBatch",
      "outputs": [
        {
          "internalType": "uint256[]",
          "name": "",
          "type": "uint256[]"
        }
      ],
      "stateMutability": "view",
      "type": "function"
    },
    {
      "inputs": [
        {
          "internalType": "uint256",
          "name": "value",
          "type": "uint256"
        }
      ],
      "name": "changeValue",
      "outputs": [],
      "stateMutability": "nonpayable",
      "type": "function"
    },
    {
      "inputs": [
        {
          "internalType": "address",
          "name": "account",
          "type": "address"
        },
        {
          "internalType": "address",
          "name": "operator",
          "type": "address"
        }
      ],
      "name": "isApprovedForAll",
      "outputs": [
        {
          "internalType": "bool",
          "name": "",
          "type": "bool"
        }
      ],
      "stateMutability": "view",
      "type": "function"
    },
    {
      "inputs": [],
      "name": "magicalTransform",
      "outputs": [],
      "stateMutability": "nonpayable",
      "type": "function"
    },
    {
      "inputs": [
        {
          "internalType": "uint256",
          "name": "tokenId",
          "type": "uint256"
        },
        {
          "internalType": "string",
          "name": "_tokenURI",
          "type": "string"
        }
      ],
      "name": "mint",
      "outputs": [],
      "stateMutability": "payable",
      "type": "function"
    },
    {
      "inputs": [],
      "name": "owner",
      "outputs": [
        {
          "internalType": "address",
          "name": "",
          "type": "address"
        }
      ],
      "stateMutability": "view",
      "type": "function"
    },
    {
      "inputs": [],
      "name": "renounceOwnership",
      "outputs": [],
      "stateMutability": "nonpayable",
      "type": "function"
    },
    {
      "inputs": [
        {
          "internalType": "address",
          "name": "from",
          "type": "address"
        },
        {
          "internalType": "address",
          "name": "to",
          "type": "address"
        },
        {
          "internalType": "uint256[]",
          "name": "ids",
          "type": "uint256[]"
        },
        {
          "internalType": "uint256[]",
          "name": "amounts",
          "type": "uint256[]"
        },
        {
          "internalType": "bytes",
          "name": "data",
          "type": "bytes"
        }
      ],
      "name": "safeBatchTransferFrom",
      "outputs": [],
      "stateMutability": "nonpayable",
      "type": "function"
    },
    {
      "inputs": [
        {
          "internalType": "address",
          "name": "from",
          "type": "address"
        },
        {
          "internalType": "address",
          "name": "to",
          "type": "address"
        },
        {
          "internalType": "uint256",
          "name": "id",
          "type": "uint256"
        },
        {
          "internalType": "uint256",
          "name": "amount",
          "type": "uint256"
        },
        {
          "internalType": "bytes",
          "name": "data",
          "type": "bytes"
        }
      ],
      "name": "safeTransferFrom",
      "outputs": [],
      "stateMutability": "nonpayable",
      "type": "function"
    },
    {
      "inputs": [
        {
          "internalType": "address",
          "name": "operator",
          "type": "address"
        },
        {
          "internalType": "bool",
          "name": "approved",
          "type": "bool"
        }
      ],
      "name": "setApprovalForAll",
      "outputs": [],
      "stateMutability": "nonpayable",
      "type": "function"
    },
    {
      "inputs": [
        {
          "internalType": "bytes4",
          "name": "interfaceId",
          "type": "bytes4"
        }
      ],
      "name": "supportsInterface",
      "outputs": [
        {
          "internalType": "bool",
          "name": "",
          "type": "bool"
        }
      ],
      "stateMutability": "view",
      "type": "function"
    },
    {
      "inputs": [
        {
          "internalType": "address",
          "name": "newOwner",
          "type": "address"
        }
      ],
      "name": "transferOwnership",
      "outputs": [],
      "stateMutability": "nonpayable",
      "type": "function"
    },
    {
      "inputs": [
        {
          "internalType": "uint256",
          "name": "tokenId",
          "type": "uint256"
        }
      ],
      "name": "uri",
      "outputs": [
        {
          "internalType": "string",
          "name": "",
          "type": "string"
        }
      ],
      "stateMutability": "view",
      "type": "function"
    }
  ],
  "bytecode": "0x608060405260405180602001604052806000815250600390805190602001906200002b92919062000178565b50670de0b6b3a76400006007553480156200004557600080fd5b506040518060200160405280600081525062000067816200008e60201b60201c565b50620000886200007c620000aa60201b60201c565b620000b260201b60201c565b6200028d565b8060029080519060200190620000a692919062000178565b5050565b600033905090565b6000600560009054906101000a900473ffffffffffffffffffffffffffffffffffffffff16905081600560006101000a81548173ffffffffffffffffffffffffffffffffffffffff021916908373ffffffffffffffffffffffffffffffffffffffff1602179055508173ffffffffffffffffffffffffffffffffffffffff168173ffffffffffffffffffffffffffffffffffffffff167f8be0079c531659141344cd1fd0a4f28419497f9722a3daafe3b4186f6b6457e060405160405180910390a35050565b828054620001869062000228565b90600052602060002090601f016020900481019282620001aa5760008555620001f6565b82601f10620001c557805160ff1916838001178555620001f6565b82800160010185558215620001f6579182015b82811115620001f5578251825591602001919060010190620001d8565b5b50905062000205919062000209565b5090565b5b80821115620002245760008160009055506001016200020a565b5090565b600060028204905060018216806200024157607f821691505b602082108114156200025857620002576200025e565b5b50919050565b7f4e487b7100000000000000000000000000000000000000000000000000000000600052602260045260246000fd5b613384806200029d6000396000f3fe6080604052600436106100dc5760003560e01c806377097fc81161007f578063e985e9c511610059578063e985e9c51461029c578063f242432a146102d9578063f2fde38b14610302578063f965e32e1461032b576100dc565b806377097fc81461022c5780638da5cb5b14610248578063a22cb46514610273576100dc565b80630e89341c116100bb5780630e89341c146101725780632eb2c2d6146101af5780634e1273f4146101d8578063715018a614610215576100dc565b8062fdd58e146100e157806301ffc9a71461011e5780630d1a04e41461015b575b600080fd5b3480156100ed57600080fd5b5061010860048036038101906101039190612191565b610354565b6040516101159190612a1d565b60405180910390f35b34801561012a57600080fd5b5061014560048036038101906101409190612239565b61041d565b6040516101529190612820565b60405180910390f35b34801561016757600080fd5b506101706104ff565b005b34801561017e57600080fd5b506101996004803603810190610194919061228b565b610501565b6040516101a6919061283b565b60405180910390f35b3480156101bb57600080fd5b506101d660048036038101906101d19190612007565b6105e6565b005b3480156101e457600080fd5b506101ff60048036038101906101fa91906121cd565b610687565b60405161020c91906127c7565b60405180910390f35b34801561022157600080fd5b5061022a610838565b005b610246600480360381019061024191906122b4565b6108c0565b005b34801561025457600080fd5b5061025d610980565b60405161026a91906126ea565b60405180910390f35b34801561027f57600080fd5b5061029a60048036038101906102959190612155565b6109aa565b005b3480156102a857600080fd5b506102c360048036038101906102be9190611fcb565b6109c0565b6040516102d09190612820565b60405180910390f35b3480156102e557600080fd5b5061030060048036038101906102fb91906120c6565b610a54565b005b34801561030e57600080fd5b5061032960048036038101906103249190611fa2565b610af5565b005b34801561033757600080fd5b50610352600480360381019061034d919061228b565b610bed565b005b60008073ffffffffffffffffffffffffffffffffffffffff168373ffffffffffffffffffffffffffffffffffffffff1614156103c5576040517f08c379a00000000000000000000000000000000000000000000000000000000081526004016103bc9061289d565b60405180910390fd5b60008083815260200190815260200160002060008473ffffffffffffffffffffffffffffffffffffffff1673ffffffffffffffffffffffffffffffffffffffff16815260200190815260200160002054905092915050565b60007fd9b67a26000000000000000000000000000000000000000000000000000000007bffffffffffffffffffffffffffffffffffffffffffffffffffffffff1916827bffffffffffffffffffffffffffffffffffffffffffffffffffffffff191614806104e857507f0e89341c000000000000000000000000000000000000000000000000000000007bffffffffffffffffffffffffffffffffffffffffffffffffffffffff1916827bffffffffffffffffffffffffffffffffffffffffffffffffffffffff1916145b806104f857506104f782610c73565b5b9050919050565b565b6060600060046000848152602001908152602001600020805461052390612cdd565b80601f016020809104026020016040519081016040528092919081815260200182805461054f90612cdd565b801561059c5780601f106105715761010080835404028352916020019161059c565b820191906000526020600020905b81548152906001019060200180831161057f57829003601f168201915b5050505050905060008151116105ba576105b583610cdd565b6105de565b6003816040516020016105ce9291906126c6565b6040516020818303038152906040525b915050919050565b6105ee610d71565b73ffffffffffffffffffffffffffffffffffffffff168573ffffffffffffffffffffffffffffffffffffffff16148061063457506106338561062e610d71565b6109c0565b5b610673576040517f08c379a000000000000000000000000000000000000000000000000000000000815260040161066a9061293d565b60405180910390fd5b6106808585858585610d79565b5050505050565b606081518351146106cd576040517f08c379a00000000000000000000000000000000000000000000000000000000081526004016106c4906129bd565b60405180910390fd5b6000835167ffffffffffffffff811115610710577f4e487b7100000000000000000000000000000000000000000000000000000000600052604160045260246000fd5b60405190808252806020026020018201604052801561073e5781602001602082028036833780820191505090505b50905060005b845181101561082d576107d7858281518110610789577f4e487b7100000000000000000000000000000000000000000000000000000000600052603260045260246000fd5b60200260200101518583815181106107ca577f4e487b7100000000000000000000000000000000000000000000000000000000600052603260045260246000fd5b6020026020010151610354565b828281518110610810577f4e487b7100000000000000000000000000000000000000000000000000000000600052603260045260246000fd5b6020026020010181815250508061082690612d40565b9050610744565b508091505092915050565b610840610d71565b73ffffffffffffffffffffffffffffffffffffffff1661085e610980565b73ffffffffffffffffffffffffffffffffffffffff16146108b4576040517f08c379a00000000000000000000000000000000000000000000000000000000081526004016108ab9061297d565b60405180910390fd5b6108be60006110e7565b565b6007543414610904576040517f08c379a00000000000000000000000000000000000000000000000000000000081526004016108fb906128fd565b60405180910390fd5b6006600083815260200190815260200160002060009054906101000a900460ff166109605761093382826111ad565b60016006600084815260200190815260200160002060006101000a81548160ff0219169083151502179055505b61097c3383600160405180602001604052806000815250611219565b5050565b6000600560009054906101000a900473ffffffffffffffffffffffffffffffffffffffff16905090565b6109bc6109b5610d71565b83836113ca565b5050565b6000600160008473ffffffffffffffffffffffffffffffffffffffff1673ffffffffffffffffffffffffffffffffffffffff16815260200190815260200160002060008373ffffffffffffffffffffffffffffffffffffffff1673ffffffffffffffffffffffffffffffffffffffff16815260200190815260200160002060009054906101000a900460ff16905092915050565b610a5c610d71565b73ffffffffffffffffffffffffffffffffffffffff168573ffffffffffffffffffffffffffffffffffffffff161480610aa25750610aa185610a9c610d71565b6109c0565b5b610ae1576040517f08c379a0000000000000000000000000000000000000000000000000000000008152600401610ad8906128dd565b60405180910390fd5b610aee8585858585611537565b5050505050565b610afd610d71565b73ffffffffffffffffffffffffffffffffffffffff16610b1b610980565b73ffffffffffffffffffffffffffffffffffffffff1614610b71576040517f08c379a0000000000000000000000000000000000000000000000000000000008152600401610b689061297d565b60405180910390fd5b600073ffffffffffffffffffffffffffffffffffffffff168173ffffffffffffffffffffffffffffffffffffffff161415610be1576040517f08c379a0000000000000000000000000000000000000000000000000000000008152600401610bd8906128bd565b60405180910390fd5b610bea816110e7565b50565b610bf5610d71565b73ffffffffffffffffffffffffffffffffffffffff16610c13610980565b73ffffffffffffffffffffffffffffffffffffffff1614610c69576040517f08c379a0000000000000000000000000000000000000000000000000000000008152600401610c609061297d565b60405180910390fd5b8060078190555050565b60007f01ffc9a7000000000000000000000000000000000000000000000000000000007bffffffffffffffffffffffffffffffffffffffffffffffffffffffff1916827bffffffffffffffffffffffffffffffffffffffffffffffffffffffff1916149050919050565b606060028054610cec90612cdd565b80601f0160208091040260200160405190810160405280929190818152602001828054610d1890612cdd565b8015610d655780601f10610d3a57610100808354040283529160200191610d65565b820191906000526020600020905b815481529060010190602001808311610d4857829003601f168201915b50505050509050919050565b600033905090565b8151835114610dbd576040517f08c379a0000000000000000000000000000000000000000000000000000000008152600401610db4906129dd565b60405180910390fd5b600073ffffffffffffffffffffffffffffffffffffffff168473ffffffffffffffffffffffffffffffffffffffff161415610e2d576040517f08c379a0000000000000000000000000000000000000000000000000000000008152600401610e249061291d565b60405180910390fd5b6000610e37610d71565b9050610e478187878787876117d3565b60005b8451811015611044576000858281518110610e8e577f4e487b7100000000000000000000000000000000000000000000000000000000600052603260045260246000fd5b602002602001015190506000858381518110610ed3577f4e487b7100000000000000000000000000000000000000000000000000000000600052603260045260246000fd5b60200260200101519050600080600084815260200190815260200160002060008b73ffffffffffffffffffffffffffffffffffffffff1673ffffffffffffffffffffffffffffffffffffffff16815260200190815260200160002054905081811015610f74576040517f08c379a0000000000000000000000000000000000000000000000000000000008152600401610f6b9061295d565b60405180910390fd5b81810360008085815260200190815260200160002060008c73ffffffffffffffffffffffffffffffffffffffff1673ffffffffffffffffffffffffffffffffffffffff168152602001908152602001600020819055508160008085815260200190815260200160002060008b73ffffffffffffffffffffffffffffffffffffffff1673ffffffffffffffffffffffffffffffffffffffff16815260200190815260200160002060008282546110299190612bd1565b925050819055505050508061103d90612d40565b9050610e4a565b508473ffffffffffffffffffffffffffffffffffffffff168673ffffffffffffffffffffffffffffffffffffffff168273ffffffffffffffffffffffffffffffffffffffff167f4a39dc06d4c0dbc64b70af90fd698a233a518aa5d07e595d983b8c0526c8f7fb87876040516110bb9291906127e9565b60405180910390a46110d18187878787876117db565b6110df8187878787876117e3565b505050505050565b6000600560009054906101000a900473ffffffffffffffffffffffffffffffffffffffff16905081600560006101000a81548173ffffffffffffffffffffffffffffffffffffffff021916908373ffffffffffffffffffffffffffffffffffffffff1602179055508173ffffffffffffffffffffffffffffffffffffffff168173ffffffffffffffffffffffffffffffffffffffff167f8be0079c531659141344cd1fd0a4f28419497f9722a3daafe3b4186f6b6457e060405160405180910390a35050565b806004600084815260200190815260200160002090805190602001906111d4929190611c9a565b50817f6bb7ff708619ba0610cba295a58592e0451dee2622938c8755667688daf3529b61120084610501565b60405161120d919061283b565b60405180910390a25050565b600073ffffffffffffffffffffffffffffffffffffffff168473ffffffffffffffffffffffffffffffffffffffff161415611289576040517f08c379a0000000000000000000000000000000000000000000000000000000008152600401611280906129fd565b60405180910390fd5b6000611293610d71565b905060006112a0856119ca565b905060006112ad856119ca565b90506112be836000898585896117d3565b8460008088815260200190815260200160002060008973ffffffffffffffffffffffffffffffffffffffff1673ffffffffffffffffffffffffffffffffffffffff168152602001908152602001600020600082825461131d9190612bd1565b925050819055508673ffffffffffffffffffffffffffffffffffffffff16600073ffffffffffffffffffffffffffffffffffffffff168473ffffffffffffffffffffffffffffffffffffffff167fc3d58168c5ae7397731d063d5bbf3d657854427343f4c083240f7aacaa2d0f62898960405161139b929190612a38565b60405180910390a46113b2836000898585896117db565b6113c183600089898989611a90565b50505050505050565b8173ffffffffffffffffffffffffffffffffffffffff168373ffffffffffffffffffffffffffffffffffffffff161415611439576040517f08c379a00000000000000000000000000000000000000000000000000000000081526004016114309061299d565b60405180910390fd5b80600160008573ffffffffffffffffffffffffffffffffffffffff1673ffffffffffffffffffffffffffffffffffffffff16815260200190815260200160002060008473ffffffffffffffffffffffffffffffffffffffff1673ffffffffffffffffffffffffffffffffffffffff16815260200190815260200160002060006101000a81548160ff0219169083151502179055508173ffffffffffffffffffffffffffffffffffffffff168373ffffffffffffffffffffffffffffffffffffffff167f17307eab39ab6107e8899845ad3d59bd9653f200f220920489ca2b5937696c318360405161152a9190612820565b60405180910390a3505050565b600073ffffffffffffffffffffffffffffffffffffffff168473ffffffffffffffffffffffffffffffffffffffff1614156115a7576040517f08c379a000000000000000000000000000000000000000000000000000000000815260040161159e9061291d565b60405180910390fd5b60006115b1610d71565b905060006115be856119ca565b905060006115cb856119ca565b90506115db8389898585896117d3565b600080600088815260200190815260200160002060008a73ffffffffffffffffffffffffffffffffffffffff1673ffffffffffffffffffffffffffffffffffffffff16815260200190815260200160002054905085811015611672576040517f08c379a00000000000000000000000000000000000000000000000000000000081526004016116699061295d565b60405180910390fd5b85810360008089815260200190815260200160002060008b73ffffffffffffffffffffffffffffffffffffffff1673ffffffffffffffffffffffffffffffffffffffff168152602001908152602001600020819055508560008089815260200190815260200160002060008a73ffffffffffffffffffffffffffffffffffffffff1673ffffffffffffffffffffffffffffffffffffffff16815260200190815260200160002060008282546117279190612bd1565b925050819055508773ffffffffffffffffffffffffffffffffffffffff168973ffffffffffffffffffffffffffffffffffffffff168573ffffffffffffffffffffffffffffffffffffffff167fc3d58168c5ae7397731d063d5bbf3d657854427343f4c083240f7aacaa2d0f628a8a6040516117a4929190612a38565b60405180910390a46117ba848a8a86868a6117db565b6117c8848a8a8a8a8a611a90565b505050505050505050565b505050505050565b505050505050565b6118028473ffffffffffffffffffffffffffffffffffffffff16611c77565b156119c2578373ffffffffffffffffffffffffffffffffffffffff1663bc197c8187878686866040518663ffffffff1660e01b8152600401611848959493929190612705565b602060405180830381600087803b15801561186257600080fd5b505af192505050801561189357506040513d601f19601f820116820180604052508101906118909190612262565b60015b6119395761189f612e16565b806308c379a014156118fc57506118b461325c565b806118bf57506118fe565b806040517f08c379a00000000000000000000000000000000000000000000000000000000081526004016118f3919061283b565b60405180910390fd5b505b6040517f08c379a00000000000000000000000000000000000000000000000000000000081526004016119309061285d565b60405180910390fd5b63bc197c8160e01b7bffffffffffffffffffffffffffffffffffffffffffffffffffffffff1916817bffffffffffffffffffffffffffffffffffffffffffffffffffffffff1916146119c0576040517f08c379a00000000000000000000000000000000000000000000000000000000081526004016119b79061287d565b60405180910390fd5b505b505050505050565b60606000600167ffffffffffffffff811115611a0f577f4e487b7100000000000000000000000000000000000000000000000000000000600052604160045260246000fd5b604051908082528060200260200182016040528015611a3d5781602001602082028036833780820191505090505b5090508281600081518110611a7b577f4e487b7100000000000000000000000000000000000000000000000000000000600052603260045260246000fd5b60200260200101818152505080915050919050565b611aaf8473ffffffffffffffffffffffffffffffffffffffff16611c77565b15611c6f578373ffffffffffffffffffffffffffffffffffffffff1663f23a6e6187878686866040518663ffffffff1660e01b8152600401611af595949392919061276d565b602060405180830381600087803b158015611b0f57600080fd5b505af1925050508015611b4057506040513d601f19601f82011682018060405250810190611b3d9190612262565b60015b611be657611b4c612e16565b806308c379a01415611ba95750611b6161325c565b80611b6c5750611bab565b806040517f08c379a0000000000000000000000000000000000000000000000000000000008152600401611ba0919061283b565b60405180910390fd5b505b6040517f08c379a0000000000000000000000000000000000000000000000000000000008152600401611bdd9061285d565b60405180910390fd5b63f23a6e6160e01b7bffffffffffffffffffffffffffffffffffffffffffffffffffffffff1916817bffffffffffffffffffffffffffffffffffffffffffffffffffffffff191614611c6d576040517f08c379a0000000000000000000000000000000000000000000000000000000008152600401611c649061287d565b60405180910390fd5b505b505050505050565b6000808273ffffffffffffffffffffffffffffffffffffffff163b119050919050565b828054611ca690612cdd565b90600052602060002090601f016020900481019282611cc85760008555611d0f565b82601f10611ce157805160ff1916838001178555611d0f565b82800160010185558215611d0f579182015b82811115611d0e578251825591602001919060010190611cf3565b5b509050611d1c9190611d20565b5090565b5b80821115611d39576000816000905550600101611d21565b5090565b6000611d50611d4b84612a86565b612a61565b90508083825260208201905082856020860282011115611d6f57600080fd5b60005b85811015611d9f5781611d858882611e91565b845260208401935060208301925050600181019050611d72565b5050509392505050565b6000611dbc611db784612ab2565b612a61565b90508083825260208201905082856020860282011115611ddb57600080fd5b60005b85811015611e0b5781611df18882611f8d565b845260208401935060208301925050600181019050611dde565b5050509392505050565b6000611e28611e2384612ade565b612a61565b905082815260208101848484011115611e4057600080fd5b611e4b848285612c9b565b509392505050565b6000611e66611e6184612b0f565b612a61565b905082815260208101848484011115611e7e57600080fd5b611e89848285612c9b565b509392505050565b600081359050611ea0816132f2565b92915050565b600082601f830112611eb757600080fd5b8135611ec7848260208601611d3d565b91505092915050565b600082601f830112611ee157600080fd5b8135611ef1848260208601611da9565b91505092915050565b600081359050611f0981613309565b92915050565b600081359050611f1e81613320565b92915050565b600081519050611f3381613320565b92915050565b600082601f830112611f4a57600080fd5b8135611f5a848260208601611e15565b91505092915050565b600082601f830112611f7457600080fd5b8135611f84848260208601611e53565b91505092915050565b600081359050611f9c81613337565b92915050565b600060208284031215611fb457600080fd5b6000611fc284828501611e91565b91505092915050565b60008060408385031215611fde57600080fd5b6000611fec85828601611e91565b9250506020611ffd85828601611e91565b9150509250929050565b600080600080600060a0868803121561201f57600080fd5b600061202d88828901611e91565b955050602061203e88828901611e91565b945050604086013567ffffffffffffffff81111561205b57600080fd5b61206788828901611ed0565b935050606086013567ffffffffffffffff81111561208457600080fd5b61209088828901611ed0565b925050608086013567ffffffffffffffff8111156120ad57600080fd5b6120b988828901611f39565b9150509295509295909350565b600080600080600060a086880312156120de57600080fd5b60006120ec88828901611e91565b95505060206120fd88828901611e91565b945050604061210e88828901611f8d565b935050606061211f88828901611f8d565b925050608086013567ffffffffffffffff81111561213c57600080fd5b61214888828901611f39565b9150509295509295909350565b6000806040838503121561216857600080fd5b600061217685828601611e91565b925050602061218785828601611efa565b9150509250929050565b600080604083850312156121a457600080fd5b60006121b285828601611e91565b92505060206121c385828601611f8d565b9150509250929050565b600080604083850312156121e057600080fd5b600083013567ffffffffffffffff8111156121fa57600080fd5b61220685828601611ea6565b925050602083013567ffffffffffffffff81111561222357600080fd5b61222f85828601611ed0565b9150509250929050565b60006020828403121561224b57600080fd5b600061225984828501611f0f565b91505092915050565b60006020828403121561227457600080fd5b600061228284828501611f24565b91505092915050565b60006020828403121561229d57600080fd5b60006122ab84828501611f8d565b91505092915050565b600080604083850312156122c757600080fd5b60006122d585828601611f8d565b925050602083013567ffffffffffffffff8111156122f257600080fd5b6122fe85828601611f63565b9150509250929050565b600061231483836126a8565b60208301905092915050565b61232981612c27565b82525050565b600061233a82612b65565b6123448185612b93565b935061234f83612b40565b8060005b838110156123805781516123678882612308565b975061237283612b86565b925050600181019050612353565b5085935050505092915050565b61239681612c39565b82525050565b60006123a782612b70565b6123b18185612ba4565b93506123c1818560208601612caa565b6123ca81612e38565b840191505092915050565b60006123e082612b7b565b6123ea8185612bb5565b93506123fa818560208601612caa565b61240381612e38565b840191505092915050565b600061241982612b7b565b6124238185612bc6565b9350612433818560208601612caa565b80840191505092915050565b6000815461244c81612cdd565b6124568186612bc6565b945060018216600081146124715760018114612482576124b5565b60ff198316865281860193506124b5565b61248b85612b50565b60005b838110156124ad5781548189015260018201915060208101905061248e565b838801955050505b50505092915050565b60006124cb603483612bb5565b91506124d682612e56565b604082019050919050565b60006124ee602883612bb5565b91506124f982612ea5565b604082019050919050565b6000612511602b83612bb5565b915061251c82612ef4565b604082019050919050565b6000612534602683612bb5565b915061253f82612f43565b604082019050919050565b6000612557602983612bb5565b915061256282612f92565b604082019050919050565b600061257a601283612bb5565b915061258582612fe1565b602082019050919050565b600061259d602583612bb5565b91506125a88261300a565b604082019050919050565b60006125c0603283612bb5565b91506125cb82613059565b604082019050919050565b60006125e3602a83612bb5565b91506125ee826130a8565b604082019050919050565b6000612606602083612bb5565b9150612611826130f7565b602082019050919050565b6000612629602983612bb5565b915061263482613120565b604082019050919050565b600061264c602983612bb5565b91506126578261316f565b604082019050919050565b600061266f602883612bb5565b915061267a826131be565b604082019050919050565b6000612692602183612bb5565b915061269d8261320d565b604082019050919050565b6126b181612c91565b82525050565b6126c081612c91565b82525050565b60006126d2828561243f565b91506126de828461240e565b91508190509392505050565b60006020820190506126ff6000830184612320565b92915050565b600060a08201905061271a6000830188612320565b6127276020830187612320565b8181036040830152612739818661232f565b9050818103606083015261274d818561232f565b90508181036080830152612761818461239c565b90509695505050505050565b600060a0820190506127826000830188612320565b61278f6020830187612320565b61279c60408301866126b7565b6127a960608301856126b7565b81810360808301526127bb818461239c565b90509695505050505050565b600060208201905081810360008301526127e1818461232f565b905092915050565b60006040820190508181036000830152612803818561232f565b90508181036020830152612817818461232f565b90509392505050565b6000602082019050612835600083018461238d565b92915050565b6000602082019050818103600083015261285581846123d5565b905092915050565b60006020820190508181036000830152612876816124be565b9050919050565b60006020820190508181036000830152612896816124e1565b9050919050565b600060208201905081810360008301526128b681612504565b9050919050565b600060208201905081810360008301526128d681612527565b9050919050565b600060208201905081810360008301526128f68161254a565b9050919050565b600060208201905081810360008301526129168161256d565b9050919050565b6000602082019050818103600083015261293681612590565b9050919050565b60006020820190508181036000830152612956816125b3565b9050919050565b60006020820190508181036000830152612976816125d6565b9050919050565b60006020820190508181036000830152612996816125f9565b9050919050565b600060208201905081810360008301526129b68161261c565b9050919050565b600060208201905081810360008301526129d68161263f565b9050919050565b600060208201905081810360008301526129f681612662565b9050919050565b60006020820190508181036000830152612a1681612685565b9050919050565b6000602082019050612a3260008301846126b7565b92915050565b6000604082019050612a4d60008301856126b7565b612a5a60208301846126b7565b9392505050565b6000612a6b612a7c565b9050612a778282612d0f565b919050565b6000604051905090565b600067ffffffffffffffff821115612aa157612aa0612de7565b5b602082029050602081019050919050565b600067ffffffffffffffff821115612acd57612acc612de7565b5b602082029050602081019050919050565b600067ffffffffffffffff821115612af957612af8612de7565b5b612b0282612e38565b9050602081019050919050565b600067ffffffffffffffff821115612b2a57612b29612de7565b5b612b3382612e38565b9050602081019050919050565b6000819050602082019050919050565b60008190508160005260206000209050919050565b600081519050919050565b600081519050919050565b600081519050919050565b6000602082019050919050565b600082825260208201905092915050565b600082825260208201905092915050565b600082825260208201905092915050565b600081905092915050565b6000612bdc82612c91565b9150612be783612c91565b9250827fffffffffffffffffffffffffffffffffffffffffffffffffffffffffffffffff03821115612c1c57612c1b612d89565b5b828201905092915050565b6000612c3282612c71565b9050919050565b60008115159050919050565b60007fffffffff0000000000000000000000000000000000000000000000000000000082169050919050565b600073ffffffffffffffffffffffffffffffffffffffff82169050919050565b6000819050919050565b82818337600083830152505050565b60005b83811015612cc8578082015181840152602081019050612cad565b83811115612cd7576000848401525b50505050565b60006002820490506001821680612cf557607f821691505b60208210811415612d0957612d08612db8565b5b50919050565b612d1882612e38565b810181811067ffffffffffffffff82111715612d3757612d36612de7565b5b80604052505050565b6000612d4b82612c91565b91507fffffffffffffffffffffffffffffffffffffffffffffffffffffffffffffffff821415612d7e57612d7d612d89565b5b600182019050919050565b7f4e487b7100000000000000000000000000000000000000000000000000000000600052601160045260246000fd5b7f4e487b7100000000000000000000000000000000000000000000000000000000600052602260045260246000fd5b7f4e487b7100000000000000000000000000000000000000000000000000000000600052604160045260246000fd5b600060033d1115612e355760046000803e612e32600051612e49565b90505b90565b6000601f19601f8301169050919050565b60008160e01c9050919050565b7f455243313135353a207472616e7366657220746f206e6f6e204552433131353560008201527f526563656976657220696d706c656d656e746572000000000000000000000000602082015250565b7f455243313135353a204552433131353552656365697665722072656a6563746560008201527f6420746f6b656e73000000000000000000000000000000000000000000000000602082015250565b7f455243313135353a2062616c616e636520717565727920666f7220746865207a60008201527f65726f2061646472657373000000000000000000000000000000000000000000602082015250565b7f4f776e61626c653a206e6577206f776e657220697320746865207a65726f206160008201527f6464726573730000000000000000000000000000000000000000000000000000602082015250565b7f455243313135353a2063616c6c6572206973206e6f74206f776e6572206e6f7260008201527f20617070726f7665640000000000000000000000000000000000000000000000602082015250565b7f496e73756666696369656e742056616c75650000000000000000000000000000600082015250565b7f455243313135353a207472616e7366657220746f20746865207a65726f20616460008201527f6472657373000000000000000000000000000000000000000000000000000000602082015250565b7f455243313135353a207472616e736665722063616c6c6572206973206e6f742060008201527f6f776e6572206e6f7220617070726f7665640000000000000000000000000000602082015250565b7f455243313135353a20696e73756666696369656e742062616c616e636520666f60008201527f72207472616e7366657200000000000000000000000000000000000000000000602082015250565b7f4f776e61626c653a2063616c6c6572206973206e6f7420746865206f776e6572600082015250565b7f455243313135353a2073657474696e6720617070726f76616c2073746174757360008201527f20666f722073656c660000000000000000000000000000000000000000000000602082015250565b7f455243313135353a206163636f756e747320616e6420696473206c656e67746860008201527f206d69736d617463680000000000000000000000000000000000000000000000602082015250565b7f455243313135353a2069647320616e6420616d6f756e7473206c656e6774682060008201527f6d69736d61746368000000000000000000000000000000000000000000000000602082015250565b7f455243313135353a206d696e7420746f20746865207a65726f2061646472657360008201527f7300000000000000000000000000000000000000000000000000000000000000602082015250565b600060443d101561326c576132ef565b613274612a7c565b60043d036004823e80513d602482011167ffffffffffffffff8211171561329c5750506132ef565b808201805167ffffffffffffffff8111156132ba57505050506132ef565b80602083010160043d0385018111156132d75750505050506132ef565b6132e682602001850186612d0f565b82955050505050505b90565b6132fb81612c27565b811461330657600080fd5b50565b61331281612c39565b811461331d57600080fd5b50565b61332981612c45565b811461333457600080fd5b50565b61334081612c91565b811461334b57600080fd5b5056fea26469706673582212201426e13855e4b103e3b3ab91bfb2db3ef70fc39ba6b14405d432e12df4d1e47764736f6c63430008010033",
  "linkReferences": {},
  "deployedLinkReferences": {}
}