{
  "_format": "hh-sol-artifact-1",
  "contractName": "CryptoAidol",
  "sourceName": "contracts/CryptoAidolContracts.sol",
  "abi": [
    {
      "inputs": [],
      "stateMutability": "nonpayable",
      "type": "constructor"
    },
    {
      "anonymous": false,
      "inputs": [
        {
          "indexed": true,
          "internalType": "address",
          "name": "owner",
          "type": "address"
        },
        {
          "indexed": true,
          "internalType": "address",
          "name": "approved",
          "type": "address"
        },
        {
          "indexed": true,
          "internalType": "uint256",
          "name": "tokenId",
          "type": "uint256"
        }
      ],
      "name": "Approval",
      "type": "event"
    },
    {
      "anonymous": false,
      "inputs": [
        {
          "indexed": true,
          "internalType": "address",
          "name": "owner",
          "type": "address"
        },
        {
          "indexed": true,
          "internalType": "address",
          "name": "operator",
          "type": "address"
        },
        {
          "indexed": false,
          "internalType": "bool",
          "name": "approved",
          "type": "bool"
        }
      ],
      "name": "ApprovalForAll",
      "type": "event"
    },
    {
      "anonymous": false,
      "inputs": [
        {
          "indexed": true,
          "internalType": "address",
          "name": "from",
          "type": "address"
        },
        {
          "indexed": true,
          "internalType": "address",
          "name": "to",
          "type": "address"
        },
        {
          "indexed": true,
          "internalType": "uint256",
          "name": "tokenId",
          "type": "uint256"
        }
      ],
      "name": "Transfer",
      "type": "event"
    },
    {
      "inputs": [
        {
          "internalType": "address",
          "name": "to",
          "type": "address"
        },
        {
          "internalType": "uint256",
          "name": "tokenId",
          "type": "uint256"
        }
      ],
      "name": "approve",
      "outputs": [],
      "stateMutability": "nonpayable",
      "type": "function"
    },
    {
      "inputs": [
        {
          "internalType": "address",
          "name": "owner",
          "type": "address"
        }
      ],
      "name": "balanceOf",
      "outputs": [
        {
          "internalType": "uint256",
          "name": "",
          "type": "uint256"
        }
      ],
      "stateMutability": "view",
      "type": "function"
    },
    {
      "inputs": [],
      "name": "getAidolId",
      "outputs": [
        {
          "internalType": "uint256",
          "name": "",
          "type": "uint256"
        }
      ],
      "stateMutability": "view",
      "type": "function"
    },
    {
      "inputs": [
        {
          "internalType": "uint256",
          "name": "tokenId",
          "type": "uint256"
        }
      ],
      "name": "getApproved",
      "outputs": [
        {
          "internalType": "address",
          "name": "",
          "type": "address"
        }
      ],
      "stateMutability": "view",
      "type": "function"
    },
    {
      "inputs": [
        {
          "internalType": "address",
          "name": "owner",
          "type": "address"
        },
        {
          "internalType": "address",
          "name": "operator",
          "type": "address"
        }
      ],
      "name": "isApprovedForAll",
      "outputs": [
        {
          "internalType": "bool",
          "name": "",
          "type": "bool"
        }
      ],
      "stateMutability": "view",
      "type": "function"
    },
    {
      "inputs": [
        {
          "internalType": "string",
          "name": "tokenURI",
          "type": "string"
        }
      ],
      "name": "magicalChange",
      "outputs": [],
      "stateMutability": "nonpayable",
      "type": "function"
    },
    {
      "inputs": [],
      "name": "mint",
      "outputs": [],
      "stateMutability": "nonpayable",
      "type": "function"
    },
    {
      "inputs": [],
      "name": "name",
      "outputs": [
        {
          "internalType": "string",
          "name": "",
          "type": "string"
        }
      ],
      "stateMutability": "view",
      "type": "function"
    },
    {
      "inputs": [
        {
          "internalType": "uint256",
          "name": "tokenId",
          "type": "uint256"
        }
      ],
      "name": "ownerOf",
      "outputs": [
        {
          "internalType": "address",
          "name": "",
          "type": "address"
        }
      ],
      "stateMutability": "view",
      "type": "function"
    },
    {
      "inputs": [],
      "name": "reset",
      "outputs": [],
      "stateMutability": "nonpayable",
      "type": "function"
    },
    {
      "inputs": [
        {
          "internalType": "address",
          "name": "from",
          "type": "address"
        },
        {
          "internalType": "address",
          "name": "to",
          "type": "address"
        },
        {
          "internalType": "uint256",
          "name": "tokenId",
          "type": "uint256"
        }
      ],
      "name": "safeTransferFrom",
      "outputs": [],
      "stateMutability": "nonpayable",
      "type": "function"
    },
    {
      "inputs": [
        {
          "internalType": "address",
          "name": "from",
          "type": "address"
        },
        {
          "internalType": "address",
          "name": "to",
          "type": "address"
        },
        {
          "internalType": "uint256",
          "name": "tokenId",
          "type": "uint256"
        },
        {
          "internalType": "bytes",
          "name": "_data",
          "type": "bytes"
        }
      ],
      "name": "safeTransferFrom",
      "outputs": [],
      "stateMutability": "nonpayable",
      "type": "function"
    },
    {
      "inputs": [
        {
          "internalType": "address",
          "name": "operator",
          "type": "address"
        },
        {
          "internalType": "bool",
          "name": "approved",
          "type": "bool"
        }
      ],
      "name": "setApprovalForAll",
      "outputs": [],
      "stateMutability": "nonpayable",
      "type": "function"
    },
    {
      "inputs": [
        {
          "internalType": "bytes4",
          "name": "interfaceId",
          "type": "bytes4"
        }
      ],
      "name": "supportsInterface",
      "outputs": [
        {
          "internalType": "bool",
          "name": "",
          "type": "bool"
        }
      ],
      "stateMutability": "view",
      "type": "function"
    },
    {
      "inputs": [],
      "name": "symbol",
      "outputs": [
        {
          "internalType": "string",
          "name": "",
          "type": "string"
        }
      ],
      "stateMutability": "view",
      "type": "function"
    },
    {
      "inputs": [],
      "name": "testURI",
      "outputs": [
        {
          "internalType": "string",
          "name": "",
          "type": "string"
        }
      ],
      "stateMutability": "pure",
      "type": "function"
    },
    {
      "inputs": [
        {
          "internalType": "uint256",
          "name": "tokenId",
          "type": "uint256"
        }
      ],
      "name": "tokenURI",
      "outputs": [
        {
          "internalType": "string",
          "name": "",
          "type": "string"
        }
      ],
      "stateMutability": "view",
      "type": "function"
    },
    {
      "inputs": [
        {
          "internalType": "address",
          "name": "from",
          "type": "address"
        },
        {
          "internalType": "address",
          "name": "to",
          "type": "address"
        },
        {
          "internalType": "uint256",
          "name": "tokenId",
          "type": "uint256"
        }
      ],
      "name": "transferFrom",
      "outputs": [],
      "stateMutability": "nonpayable",
      "type": "function"
    }
  ],
  "bytecode": "0x60806040523480156200001157600080fd5b506040518060400160405280600e81526020017f43727970746f4169646f6c4e46540000000000000000000000000000000000008152506040518060400160405280600381526020017f4341490000000000000000000000000000000000000000000000000000000000815250816000908051906020019062000096929190620000b8565b508060019080519060200190620000af929190620000b8565b505050620001cd565b828054620000c69062000168565b90600052602060002090601f016020900481019282620000ea576000855562000136565b82601f106200010557805160ff191683800117855562000136565b8280016001018555821562000136579182015b828111156200013557825182559160200191906001019062000118565b5b50905062000145919062000149565b5090565b5b80821115620001645760008160009055506001016200014a565b5090565b600060028204905060018216806200018157607f821691505b602082108114156200019857620001976200019e565b5b50919050565b7f4e487b7100000000000000000000000000000000000000000000000000000000600052602260045260246000fd5b61314680620001dd6000396000f3fe608060405234801561001057600080fd5b50600436106101165760003560e01c80636352211e116100a2578063b88d4fde11610071578063b88d4fde146102cd578063c87b56dd146102e9578063d14b695b14610319578063d826f88f14610335578063e985e9c51461033f57610116565b80636352211e1461023357806370a082311461026357806395d89b4114610293578063a22cb465146102b157610116565b80630dcc30af116100e95780630dcc30af146101b55780631249c58b146101d357806323b872dd146101dd5780633e1c041a146101f957806342842e0e1461021757610116565b806301ffc9a71461011b57806306fdde031461014b578063081812fc14610169578063095ea7b314610199575b600080fd5b6101356004803603810190610130919061206e565b61036f565b604051610142919061251e565b60405180910390f35b610153610451565b6040516101609190612539565b60405180910390f35b610183600480360381019061017e9190612101565b6104e3565b60405161019091906124b7565b60405180910390f35b6101b360048036038101906101ae9190612032565b610568565b005b6101bd610680565b6040516101ca9190612539565b60405180910390f35b6101db6106bd565b005b6101f760048036038101906101f29190611f2c565b61081c565b005b61020161087c565b60405161020e91906127bb565b60405180910390f35b610231600480360381019061022c9190611f2c565b61094f565b005b61024d60048036038101906102489190612101565b61096f565b60405161025a91906124b7565b60405180910390f35b61027d60048036038101906102789190611ec7565b610a21565b60405161028a91906127bb565b60405180910390f35b61029b610ad9565b6040516102a89190612539565b60405180910390f35b6102cb60048036038101906102c69190611ff6565b610b6b565b005b6102e760048036038101906102e29190611f7b565b610b81565b005b61030360048036038101906102fe9190612101565b610be3565b6040516103109190612539565b60405180910390f35b610333600480360381019061032e91906120c0565b610d35565b005b61033d610dd6565b005b61035960048036038101906103549190611ef0565b610e7c565b604051610366919061251e565b60405180910390f35b60007f80ac58cd000000000000000000000000000000000000000000000000000000007bffffffffffffffffffffffffffffffffffffffffffffffffffffffff1916827bffffffffffffffffffffffffffffffffffffffffffffffffffffffff1916148061043a57507f5b5e139f000000000000000000000000000000000000000000000000000000007bffffffffffffffffffffffffffffffffffffffffffffffffffffffff1916827bffffffffffffffffffffffffffffffffffffffffffffffffffffffff1916145b8061044a575061044982610f10565b5b9050919050565b60606000805461046090612a11565b80601f016020809104026020016040519081016040528092919081815260200182805461048c90612a11565b80156104d95780601f106104ae576101008083540402835291602001916104d9565b820191906000526020600020905b8154815290600101906020018083116104bc57829003601f168201915b5050505050905090565b60006104ee82610f7a565b61052d576040517f08c379a00000000000000000000000000000000000000000000000000000000081526004016105249061271b565b60405180910390fd5b6004600083815260200190815260200160002060009054906101000a900473ffffffffffffffffffffffffffffffffffffffff169050919050565b60006105738261096f565b90508073ffffffffffffffffffffffffffffffffffffffff168373ffffffffffffffffffffffffffffffffffffffff1614156105e4576040517f08c379a00000000000000000000000000000000000000000000000000000000081526004016105db9061275b565b60405180910390fd5b8073ffffffffffffffffffffffffffffffffffffffff16610603610fe6565b73ffffffffffffffffffffffffffffffffffffffff16148061063257506106318161062c610fe6565b610e7c565b5b610671576040517f08c379a00000000000000000000000000000000000000000000000000000000081526004016106689061263b565b60405180910390fd5b61067b8383610fee565b505050565b60606040518060400160405280601f81526020017f687474703a2f2f6c6f63616c686f73743a333030302f6170692f68656c6c6f00815250905090565b600860003373ffffffffffffffffffffffffffffffffffffffff1673ffffffffffffffffffffffffffffffffffffffff16815260200190815260200160002060009054906101000a900460ff161561074a576040517f08c379a00000000000000000000000000000000000000000000000000000000081526004016107419061255b565b60405180910390fd5b61075460076110a7565b600061076060076110bd565b905061076c33826110cb565b80600960003373ffffffffffffffffffffffffffffffffffffffff1673ffffffffffffffffffffffffffffffffffffffff168152602001908152602001600020819055506001600860003373ffffffffffffffffffffffffffffffffffffffff1673ffffffffffffffffffffffffffffffffffffffff16815260200190815260200160002060006101000a81548160ff021916908315150217905550610819816108146112a5565b6112e2565b50565b61082d610827610fe6565b82611356565b61086c576040517f08c379a00000000000000000000000000000000000000000000000000000000081526004016108639061279b565b60405180910390fd5b610877838383611434565b505050565b6000600860003373ffffffffffffffffffffffffffffffffffffffff1673ffffffffffffffffffffffffffffffffffffffff16815260200190815260200160002060009054906101000a900460ff1661090a576040517f08c379a00000000000000000000000000000000000000000000000000000000081526004016109019061277b565b60405180910390fd5b600960003373ffffffffffffffffffffffffffffffffffffffff1673ffffffffffffffffffffffffffffffffffffffff16815260200190815260200160002054905090565b61096a83838360405180602001604052806000815250610b81565b505050565b6000806002600084815260200190815260200160002060009054906101000a900473ffffffffffffffffffffffffffffffffffffffff169050600073ffffffffffffffffffffffffffffffffffffffff168173ffffffffffffffffffffffffffffffffffffffff161415610a18576040517f08c379a0000000000000000000000000000000000000000000000000000000008152600401610a0f9061269b565b60405180910390fd5b80915050919050565b60008073ffffffffffffffffffffffffffffffffffffffff168273ffffffffffffffffffffffffffffffffffffffff161415610a92576040517f08c379a0000000000000000000000000000000000000000000000000000000008152600401610a899061267b565b60405180910390fd5b600360008373ffffffffffffffffffffffffffffffffffffffff1673ffffffffffffffffffffffffffffffffffffffff168152602001908152602001600020549050919050565b606060018054610ae890612a11565b80601f0160208091040260200160405190810160405280929190818152602001828054610b1490612a11565b8015610b615780601f10610b3657610100808354040283529160200191610b61565b820191906000526020600020905b815481529060010190602001808311610b4457829003601f168201915b5050505050905090565b610b7d610b76610fe6565b838361169b565b5050565b610b92610b8c610fe6565b83611356565b610bd1576040517f08c379a0000000000000000000000000000000000000000000000000000000008152600401610bc89061279b565b60405180910390fd5b610bdd84848484611808565b50505050565b6060610bee82610f7a565b610c2d576040517f08c379a0000000000000000000000000000000000000000000000000000000008152600401610c24906126fb565b60405180910390fd5b6000600660008481526020019081526020016000208054610c4d90612a11565b80601f0160208091040260200160405190810160405280929190818152602001828054610c7990612a11565b8015610cc65780601f10610c9b57610100808354040283529160200191610cc6565b820191906000526020600020905b815481529060010190602001808311610ca957829003601f168201915b505050505090506000610cd76112a5565b9050600081511415610ced578192505050610d30565b600082511115610d22578082604051602001610d0a929190612493565b60405160208183030381529060405292505050610d30565b610d2b84611864565b925050505b919050565b600860003373ffffffffffffffffffffffffffffffffffffffff1673ffffffffffffffffffffffffffffffffffffffff16815260200190815260200160002060009054906101000a900460ff1615610dc2576040517f08c379a0000000000000000000000000000000000000000000000000000000008152600401610db99061255b565b60405180910390fd5b610dd3610dcd61087c565b826112e2565b50565b600860003373ffffffffffffffffffffffffffffffffffffffff1673ffffffffffffffffffffffffffffffffffffffff16815260200190815260200160002060009054906101000a900460ff16610e62576040517f08c379a0000000000000000000000000000000000000000000000000000000008152600401610e599061277b565b60405180910390fd5b610e7a610e6d61087c565b610e756112a5565b6112e2565b565b6000600560008473ffffffffffffffffffffffffffffffffffffffff1673ffffffffffffffffffffffffffffffffffffffff16815260200190815260200160002060008373ffffffffffffffffffffffffffffffffffffffff1673ffffffffffffffffffffffffffffffffffffffff16815260200190815260200160002060009054906101000a900460ff16905092915050565b60007f01ffc9a7000000000000000000000000000000000000000000000000000000007bffffffffffffffffffffffffffffffffffffffffffffffffffffffff1916827bffffffffffffffffffffffffffffffffffffffffffffffffffffffff1916149050919050565b60008073ffffffffffffffffffffffffffffffffffffffff166002600084815260200190815260200160002060009054906101000a900473ffffffffffffffffffffffffffffffffffffffff1673ffffffffffffffffffffffffffffffffffffffff1614159050919050565b600033905090565b816004600083815260200190815260200160002060006101000a81548173ffffffffffffffffffffffffffffffffffffffff021916908373ffffffffffffffffffffffffffffffffffffffff160217905550808273ffffffffffffffffffffffffffffffffffffffff166110618361096f565b73ffffffffffffffffffffffffffffffffffffffff167f8c5be1e5ebec7d5bd14f71427d1e84f3dd0314c0f7b2291e5b200ac8c7c3b92560405160405180910390a45050565b6001816000016000828254019250508190555050565b600081600001549050919050565b600073ffffffffffffffffffffffffffffffffffffffff168273ffffffffffffffffffffffffffffffffffffffff16141561113b576040517f08c379a0000000000000000000000000000000000000000000000000000000008152600401611132906126db565b60405180910390fd5b61114481610f7a565b15611184576040517f08c379a000000000000000000000000000000000000000000000000000000000815260040161117b906125bb565b60405180910390fd5b6111906000838361190b565b6001600360008473ffffffffffffffffffffffffffffffffffffffff1673ffffffffffffffffffffffffffffffffffffffff16815260200190815260200160002060008282546111e091906128a0565b92505081905550816002600083815260200190815260200160002060006101000a81548173ffffffffffffffffffffffffffffffffffffffff021916908373ffffffffffffffffffffffffffffffffffffffff160217905550808273ffffffffffffffffffffffffffffffffffffffff16600073ffffffffffffffffffffffffffffffffffffffff167fddf252ad1be2c89b69c2b068fc378daa952ba7f163c4a11628f55a4df523b3ef60405160405180910390a46112a16000838361197f565b5050565b60606040518060400160405280601f81526020017f687474703a2f2f6c6f63616c686f73743a333030302f6170692f68656c6c6f00815250905090565b6112eb82610f7a565b61132a576040517f08c379a0000000000000000000000000000000000000000000000000000000008152600401611321906126bb565b60405180910390fd5b80600660008481526020019081526020016000209080519060200190611351929190611ceb565b505050565b600061136182610f7a565b6113a0576040517f08c379a00000000000000000000000000000000000000000000000000000000081526004016113979061261b565b60405180910390fd5b60006113ab8361096f565b90508073ffffffffffffffffffffffffffffffffffffffff168473ffffffffffffffffffffffffffffffffffffffff1614806113ed57506113ec8185610e7c565b5b8061142b57508373ffffffffffffffffffffffffffffffffffffffff16611413846104e3565b73ffffffffffffffffffffffffffffffffffffffff16145b91505092915050565b8273ffffffffffffffffffffffffffffffffffffffff166114548261096f565b73ffffffffffffffffffffffffffffffffffffffff16146114aa576040517f08c379a00000000000000000000000000000000000000000000000000000000081526004016114a19061259b565b60405180910390fd5b600073ffffffffffffffffffffffffffffffffffffffff168273ffffffffffffffffffffffffffffffffffffffff16141561151a576040517f08c379a0000000000000000000000000000000000000000000000000000000008152600401611511906125db565b60405180910390fd5b61152583838361190b565b611530600082610fee565b6001600360008573ffffffffffffffffffffffffffffffffffffffff1673ffffffffffffffffffffffffffffffffffffffff16815260200190815260200160002060008282546115809190612927565b925050819055506001600360008473ffffffffffffffffffffffffffffffffffffffff1673ffffffffffffffffffffffffffffffffffffffff16815260200190815260200160002060008282546115d791906128a0565b92505081905550816002600083815260200190815260200160002060006101000a81548173ffffffffffffffffffffffffffffffffffffffff021916908373ffffffffffffffffffffffffffffffffffffffff160217905550808273ffffffffffffffffffffffffffffffffffffffff168473ffffffffffffffffffffffffffffffffffffffff167fddf252ad1be2c89b69c2b068fc378daa952ba7f163c4a11628f55a4df523b3ef60405160405180910390a461169683838361197f565b505050565b8173ffffffffffffffffffffffffffffffffffffffff168373ffffffffffffffffffffffffffffffffffffffff16141561170a576040517f08c379a0000000000000000000000000000000000000000000000000000000008152600401611701906125fb565b60405180910390fd5b80600560008573ffffffffffffffffffffffffffffffffffffffff1673ffffffffffffffffffffffffffffffffffffffff16815260200190815260200160002060008473ffffffffffffffffffffffffffffffffffffffff1673ffffffffffffffffffffffffffffffffffffffff16815260200190815260200160002060006101000a81548160ff0219169083151502179055508173ffffffffffffffffffffffffffffffffffffffff168373ffffffffffffffffffffffffffffffffffffffff167f17307eab39ab6107e8899845ad3d59bd9653f200f220920489ca2b5937696c31836040516117fb919061251e565b60405180910390a3505050565b611813848484611434565b61181f84848484611984565b61185e576040517f08c379a00000000000000000000000000000000000000000000000000000000081526004016118559061257b565b60405180910390fd5b50505050565b606061186f82610f7a565b6118ae576040517f08c379a00000000000000000000000000000000000000000000000000000000081526004016118a59061273b565b60405180910390fd5b60006118b86112a5565b905060008151116118d85760405180602001604052806000815250611903565b806118e284611b1b565b6040516020016118f3929190612493565b6040516020818303038152906040525b915050919050565b600073ffffffffffffffffffffffffffffffffffffffff168373ffffffffffffffffffffffffffffffffffffffff161461197a576040517f08c379a00000000000000000000000000000000000000000000000000000000081526004016119719061265b565b60405180910390fd5b505050565b505050565b60006119a58473ffffffffffffffffffffffffffffffffffffffff16611cc8565b15611b0e578373ffffffffffffffffffffffffffffffffffffffff1663150b7a026119ce610fe6565b8786866040518563ffffffff1660e01b81526004016119f094939291906124d2565b602060405180830381600087803b158015611a0a57600080fd5b505af1925050508015611a3b57506040513d601f19601f82011682018060405250810190611a389190612097565b60015b611abe573d8060008114611a6b576040519150601f19603f3d011682016040523d82523d6000602084013e611a70565b606091505b50600081511415611ab6576040517f08c379a0000000000000000000000000000000000000000000000000000000008152600401611aad9061257b565b60405180910390fd5b805181602001fd5b63150b7a0260e01b7bffffffffffffffffffffffffffffffffffffffffffffffffffffffff1916817bffffffffffffffffffffffffffffffffffffffffffffffffffffffff191614915050611b13565b600190505b949350505050565b60606000821415611b63576040518060400160405280600181526020017f30000000000000000000000000000000000000000000000000000000000000008152509050611cc3565b600082905060005b60008214611b95578080611b7e90612a74565b915050600a82611b8e91906128f6565b9150611b6b565b60008167ffffffffffffffff811115611bd7577f4e487b7100000000000000000000000000000000000000000000000000000000600052604160045260246000fd5b6040519080825280601f01601f191660200182016040528015611c095781602001600182028036833780820191505090505b5090505b60008514611cbc57600182611c229190612927565b9150600a85611c319190612abd565b6030611c3d91906128a0565b60f81b818381518110611c79577f4e487b7100000000000000000000000000000000000000000000000000000000600052603260045260246000fd5b60200101907effffffffffffffffffffffffffffffffffffffffffffffffffffffffffffff1916908160001a905350600a85611cb591906128f6565b9450611c0d565b8093505050505b919050565b6000808273ffffffffffffffffffffffffffffffffffffffff163b119050919050565b828054611cf790612a11565b90600052602060002090601f016020900481019282611d195760008555611d60565b82601f10611d3257805160ff1916838001178555611d60565b82800160010185558215611d60579182015b82811115611d5f578251825591602001919060010190611d44565b5b509050611d6d9190611d71565b5090565b5b80821115611d8a576000816000905550600101611d72565b5090565b6000611da1611d9c846127fb565b6127d6565b905082815260208101848484011115611db957600080fd5b611dc48482856129cf565b509392505050565b6000611ddf611dda8461282c565b6127d6565b905082815260208101848484011115611df757600080fd5b611e028482856129cf565b509392505050565b600081359050611e19816130b4565b92915050565b600081359050611e2e816130cb565b92915050565b600081359050611e43816130e2565b92915050565b600081519050611e58816130e2565b92915050565b600082601f830112611e6f57600080fd5b8135611e7f848260208601611d8e565b91505092915050565b600082601f830112611e9957600080fd5b8135611ea9848260208601611dcc565b91505092915050565b600081359050611ec1816130f9565b92915050565b600060208284031215611ed957600080fd5b6000611ee784828501611e0a565b91505092915050565b60008060408385031215611f0357600080fd5b6000611f1185828601611e0a565b9250506020611f2285828601611e0a565b9150509250929050565b600080600060608486031215611f4157600080fd5b6000611f4f86828701611e0a565b9350506020611f6086828701611e0a565b9250506040611f7186828701611eb2565b9150509250925092565b60008060008060808587031215611f9157600080fd5b6000611f9f87828801611e0a565b9450506020611fb087828801611e0a565b9350506040611fc187828801611eb2565b925050606085013567ffffffffffffffff811115611fde57600080fd5b611fea87828801611e5e565b91505092959194509250565b6000806040838503121561200957600080fd5b600061201785828601611e0a565b925050602061202885828601611e1f565b9150509250929050565b6000806040838503121561204557600080fd5b600061205385828601611e0a565b925050602061206485828601611eb2565b9150509250929050565b60006020828403121561208057600080fd5b600061208e84828501611e34565b91505092915050565b6000602082840312156120a957600080fd5b60006120b784828501611e49565b91505092915050565b6000602082840312156120d257600080fd5b600082013567ffffffffffffffff8111156120ec57600080fd5b6120f884828501611e88565b91505092915050565b60006020828403121561211357600080fd5b600061212184828501611eb2565b91505092915050565b6121338161295b565b82525050565b6121428161296d565b82525050565b60006121538261285d565b61215d8185612873565b935061216d8185602086016129de565b61217681612baa565b840191505092915050565b600061218c82612868565b6121968185612884565b93506121a68185602086016129de565b6121af81612baa565b840191505092915050565b60006121c582612868565b6121cf8185612895565b93506121df8185602086016129de565b80840191505092915050565b60006121f8602083612884565b915061220382612bbb565b602082019050919050565b600061221b603283612884565b915061222682612be4565b604082019050919050565b600061223e602583612884565b915061224982612c33565b604082019050919050565b6000612261601c83612884565b915061226c82612c82565b602082019050919050565b6000612284602483612884565b915061228f82612cab565b604082019050919050565b60006122a7601983612884565b91506122b282612cfa565b602082019050919050565b60006122ca602c83612884565b91506122d582612d23565b604082019050919050565b60006122ed603883612884565b91506122f882612d72565b604082019050919050565b6000612310601083612884565b915061231b82612dc1565b602082019050919050565b6000612333602a83612884565b915061233e82612dea565b604082019050919050565b6000612356602983612884565b915061236182612e39565b604082019050919050565b6000612379602e83612884565b915061238482612e88565b604082019050919050565b600061239c602083612884565b91506123a782612ed7565b602082019050919050565b60006123bf603183612884565b91506123ca82612f00565b604082019050919050565b60006123e2602c83612884565b91506123ed82612f4f565b604082019050919050565b6000612405602f83612884565b915061241082612f9e565b604082019050919050565b6000612428602183612884565b915061243382612fed565b604082019050919050565b600061244b601583612884565b91506124568261303c565b602082019050919050565b600061246e603183612884565b915061247982613065565b604082019050919050565b61248d816129c5565b82525050565b600061249f82856121ba565b91506124ab82846121ba565b91508190509392505050565b60006020820190506124cc600083018461212a565b92915050565b60006080820190506124e7600083018761212a565b6124f4602083018661212a565b6125016040830185612484565b81810360608301526125138184612148565b905095945050505050565b60006020820190506125336000830184612139565b92915050565b600060208201905081810360008301526125538184612181565b905092915050565b60006020820190508181036000830152612574816121eb565b9050919050565b600060208201905081810360008301526125948161220e565b9050919050565b600060208201905081810360008301526125b481612231565b9050919050565b600060208201905081810360008301526125d481612254565b9050919050565b600060208201905081810360008301526125f481612277565b9050919050565b600060208201905081810360008301526126148161229a565b9050919050565b60006020820190508181036000830152612634816122bd565b9050919050565b60006020820190508181036000830152612654816122e0565b9050919050565b6000602082019050818103600083015261267481612303565b9050919050565b6000602082019050818103600083015261269481612326565b9050919050565b600060208201905081810360008301526126b481612349565b9050919050565b600060208201905081810360008301526126d48161236c565b9050919050565b600060208201905081810360008301526126f48161238f565b9050919050565b60006020820190508181036000830152612714816123b2565b9050919050565b60006020820190508181036000830152612734816123d5565b9050919050565b60006020820190508181036000830152612754816123f8565b9050919050565b600060208201905081810360008301526127748161241b565b9050919050565b600060208201905081810360008301526127948161243e565b9050919050565b600060208201905081810360008301526127b481612461565b9050919050565b60006020820190506127d06000830184612484565b92915050565b60006127e06127f1565b90506127ec8282612a43565b919050565b6000604051905090565b600067ffffffffffffffff82111561281657612815612b7b565b5b61281f82612baa565b9050602081019050919050565b600067ffffffffffffffff82111561284757612846612b7b565b5b61285082612baa565b9050602081019050919050565b600081519050919050565b600081519050919050565b600082825260208201905092915050565b600082825260208201905092915050565b600081905092915050565b60006128ab826129c5565b91506128b6836129c5565b9250827fffffffffffffffffffffffffffffffffffffffffffffffffffffffffffffffff038211156128eb576128ea612aee565b5b828201905092915050565b6000612901826129c5565b915061290c836129c5565b92508261291c5761291b612b1d565b5b828204905092915050565b6000612932826129c5565b915061293d836129c5565b9250828210156129505761294f612aee565b5b828203905092915050565b6000612966826129a5565b9050919050565b60008115159050919050565b60007fffffffff0000000000000000000000000000000000000000000000000000000082169050919050565b600073ffffffffffffffffffffffffffffffffffffffff82169050919050565b6000819050919050565b82818337600083830152505050565b60005b838110156129fc5780820151818401526020810190506129e1565b83811115612a0b576000848401525b50505050565b60006002820490506001821680612a2957607f821691505b60208210811415612a3d57612a3c612b4c565b5b50919050565b612a4c82612baa565b810181811067ffffffffffffffff82111715612a6b57612a6a612b7b565b5b80604052505050565b6000612a7f826129c5565b91507fffffffffffffffffffffffffffffffffffffffffffffffffffffffffffffffff821415612ab257612ab1612aee565b5b600182019050919050565b6000612ac8826129c5565b9150612ad3836129c5565b925082612ae357612ae2612b1d565b5b828206905092915050565b7f4e487b7100000000000000000000000000000000000000000000000000000000600052601160045260246000fd5b7f4e487b7100000000000000000000000000000000000000000000000000000000600052601260045260246000fd5b7f4e487b7100000000000000000000000000000000000000000000000000000000600052602260045260246000fd5b7f4e487b7100000000000000000000000000000000000000000000000000000000600052604160045260246000fd5b6000601f19601f8301169050919050565b7f596f75277665206e6f74206f70656e656420746865204169646f6c20446f6f72600082015250565b7f4552433732313a207472616e7366657220746f206e6f6e20455243373231526560008201527f63656976657220696d706c656d656e7465720000000000000000000000000000602082015250565b7f4552433732313a207472616e736665722066726f6d20696e636f72726563742060008201527f6f776e6572000000000000000000000000000000000000000000000000000000602082015250565b7f4552433732313a20746f6b656e20616c7265616479206d696e74656400000000600082015250565b7f4552433732313a207472616e7366657220746f20746865207a65726f2061646460008201527f7265737300000000000000000000000000000000000000000000000000000000602082015250565b7f4552433732313a20617070726f766520746f2063616c6c657200000000000000600082015250565b7f4552433732313a206f70657261746f7220717565727920666f72206e6f6e657860008201527f697374656e7420746f6b656e0000000000000000000000000000000000000000602082015250565b7f4552433732313a20617070726f76652063616c6c6572206973206e6f74206f7760008201527f6e6572206e6f7220617070726f76656420666f7220616c6c0000000000000000602082015250565b7f4e6f74205472616e7366657261626c6500000000000000000000000000000000600082015250565b7f4552433732313a2062616c616e636520717565727920666f7220746865207a6560008201527f726f206164647265737300000000000000000000000000000000000000000000602082015250565b7f4552433732313a206f776e657220717565727920666f72206e6f6e657869737460008201527f656e7420746f6b656e0000000000000000000000000000000000000000000000602082015250565b7f45524337323155524953746f726167653a2055524920736574206f66206e6f6e60008201527f6578697374656e7420746f6b656e000000000000000000000000000000000000602082015250565b7f4552433732313a206d696e7420746f20746865207a65726f2061646472657373600082015250565b7f45524337323155524953746f726167653a2055524920717565727920666f722060008201527f6e6f6e6578697374656e7420746f6b656e000000000000000000000000000000602082015250565b7f4552433732313a20617070726f76656420717565727920666f72206e6f6e657860008201527f697374656e7420746f6b656e0000000000000000000000000000000000000000602082015250565b7f4552433732314d657461646174613a2055524920717565727920666f72206e6f60008201527f6e6578697374656e7420746f6b656e0000000000000000000000000000000000602082015250565b7f4552433732313a20617070726f76616c20746f2063757272656e74206f776e6560008201527f7200000000000000000000000000000000000000000000000000000000000000602082015250565b7f596f7527726520616c7265616479204169646f6c210000000000000000000000600082015250565b7f4552433732313a207472616e736665722063616c6c6572206973206e6f74206f60008201527f776e6572206e6f7220617070726f766564000000000000000000000000000000602082015250565b6130bd8161295b565b81146130c857600080fd5b50565b6130d48161296d565b81146130df57600080fd5b50565b6130eb81612979565b81146130f657600080fd5b50565b613102816129c5565b811461310d57600080fd5b5056fea2646970667358221220c44794bdb8768146b2c398b20448c1d32aa7cfa102e5e1051946a2d3af92814d64736f6c63430008010033",
  "linkReferences": {},
  "deployedLinkReferences": {}
}